:020000040800F2
:10000000202900209D010008A919000831100008CE
:10001000A5190008890B0008CD2B0008000000007E
:10002000000000000000000000000000751E000835
:10003000A10C000800000000391A0008E7200008A1
:10004000B7010008B7010008B7010008B7010008B0
:10005000B7010008B7010008B7010008B7010008A0
:10006000B7010008B7010008B7010008B701000890
:10007000B7010008B7010008B7010008B701000880
:10008000B7010008B7010008B7010008B701000870
:10009000B7010008B7010008B7010008B701000860
:1000A000B7010008B7010008B7010008B701000850
:1000B000B7010008DD21000809230008B701000886
:1000C000B7010008B7010008B7010008B701000830
:1000D000B701000819270008292700083927000858
:1000E000B7010008B7010008B7010008B701000810
:1000F000B7010008B7010008B7010008B701000800
:10010000B7010008B701000841230008B701000843
:10011000B7010008B7010008B7010008B7010008DF
:10012000B7010008B7010008B7010008B7010008CF
:10013000B7010008B7010008B7010008B7010008BF
:10014000B7010008B7010008B7010008B7010008AF
:10015000B7010008B7010008B701000849270008E7
:10016000B7010008B7010008B7010008B70100088F
:10017000B7010008B7010008B7010008B70100087F
:10018000B7010008B7010008DFF80CD000F0CEFB83
:1001900000480047813D000820290020064880478C
:1001A00006480047FEE7FEE7FEE7FEE7FEE7FEE75C
:1001B000FEE7FEE7FEE7FEE775210008890100087B
:1001C00093081BD090ED000AD0ED011AD0ED020A81
:1001D00090ED031AB0EEC00A81ED000AF0EEE11ACC
:1001E000B0EEE00AC1ED011AF0EEC10A81ED020A9B
:1001F000C1ED030A103010315B1EE3D112F003028F
:1002000008BF7047B2F1004F23D2002AD8BF704711
:10021000001F091F12F0010F07D090ED010A001D09
:10022000B0EEC00A81ED010A091D520808BF7047EF
:1002300090ED010AB0EEC00A81ED010A90ED020ACC
:100240000830B0EEC00A81ED020A0831521EEFD12B
:100250007047B0EC010A521EB0EEC00AA1EC010AD0
:10026000F7D17047D0ED060A90ED070A002930EE6D
:10027000801A90ED080A31EE001A80ED001AB0EEF7
:10028000001A51EE400AC0ED010A80ED020A08BFD3
:1002900070470021C1600161416170470021C16068
:1002A0000161416170472DE9FE4F804681EA0300FC
:1002B000C00F0C46009021F0004123F00045B8EB40
:1002C0000200A94105D24046214690461C460B46F5
:1002D000024623F00040104347D0270DC7F30A0021
:1002E000C3F30A510290401A019040286BDAC3F31D
:1002F000130040F4801B0098924620B10023D2EBFB
:10030000030A63EB0B0B01985946C0F140025046BB
:1003100000F017FA06460D4650465946019A00F07D
:100320002FFA10EB08006141002487EA115284EA99
:10033000E7731A4340D0009A62B3019A012A4FEA48
:10034000075215DC001B61EB02014FF0004202EA8C
:100350000752CDE90042001C41F5801132462B4680
:1003600000F066FA03B0BDE8F08F40462146F9E799
:10037000001B61EB0201001C41F5801300185B417A
:100380002018A2F5001747EB030140EAD570B61913
:100390006D4111E06D084FEA360645EAC0754FEA37
:1003A0000752001B61EB0201001C41F58011490856
:1003B0004FEA30000019514132462B4603B0BDE8E8
:1003C000F04F00F026BA0098012240000023D0EB45
:1003D000020263EBE073009821464FEAE074B8EB49
:1003E000000061EB0401E9E783F000435BE781F083
:1003F000004158E72DE9FE4F81EA030404F0004470
:1004000021F0004100944FF0000B23F0004350EA2C
:1004100001045ED052EA03045BD0C3F30A54C1F373
:100420000A552C44A4F2F3340194A0FB0254C1F306
:10043000130141F48011C3F3130343F4801301FB50
:10044000024400FB034E840A970A44EA815447EAB7
:100450008357A4FB076802958D0A05FB07854FEAC1
:10046000932C04FB0C542705029D4FEA065847EADB
:100470001637B5EB08056EEB070C870E920E47EAB0
:10048000811742EA8312A7FB0201B6EB0B0164EB72
:1004900000042B0D43EA0C335E1844EB1C50DA4683
:1004A0005146E7FB0201C5F313044FEA0B3343EA5D
:1004B00014534FEA0432019C43EA0603A4F10C04EE
:1004C0000294009CCDE900B400F0B2F903B0BDE89D
:1004D000F08F00200146F9E72DE9F04D81EA030491
:1004E00004F0004B21F0004514464FF0000A23F0C1
:1004F000004150EA050220D054EA01021DD0C5F3A4
:100500000A570246C5F31303C1F31300C1F30A5699
:1005100040F4801543F48013A7EB0608101BD64661
:1005200008F2FD3873EB050002D308F1010801E081
:1005300092185B41B8F1000F03DA00200146BDE8D4
:10054000F08D00204FF48011064684460EE0171B04
:1005500073EB050705D3121B63EB050306434CEA57
:10056000010C49084FEA300092185B4150EA01073C
:10057000EDD152EA030012D082EA040083EA0501B9
:10058000084305D0101BAB4106D20122002306E030
:1005900000224FF0004302E06FF0010253101AEB0B
:1005A00006004CEB085110EB0A0041EB0B01BDE8D3
:1005B000F04D00F02EB90EB5C10F80EAE07008448E
:1005C000CA07002140F233438DE80E000A460B466D
:1005D00000F02EF903B000BD0EB540F23341029198
:1005E0000021CDE900110A460B4600F021F903B0C5
:1005F00000BDC1F30A5210B5C1F3130140F2FF333D
:1006000041F480119A4201DA002010BD40F23343D8
:100610009A42A2F2334203DC524200F0A1F810BD2C
:10062000904010BD00F0004230F000400AD0C10DF3
:1006300001F56071C0F3160042EA0151C20840079B
:1006400011437047002001467047000030B5041E7A
:1006500071F1000404DB4FF00044404264EB0101FF
:10066000141E73F1000405DB1C464FF00043524298
:1006700063EB04038B4208BF824230BD01F00043AC
:1006800030B421F0004150EA010206D00A0DA2F573
:100690006072C1F31301002A02DC30BC00207047F5
:1006A000440F44EAC104C100E01830BC00EBC25062
:1006B00000F078B830B50B46014600202022012416
:1006C00009E021FA02F59D4205D303FA02F5491B20
:1006D00004FA02F52844151EA2F10102F1DC30BD36
:1006E0002DE9F05F0546002092469B468846064667
:1006F000814640241BE0284641464746224600F0FA
:100700002FF853465A46C01A914110D31146184645
:10071000224600F016F82D1A67EB01084F462246D4
:100720000120002100F00DF817EB00094E41201EBA
:10073000A4F10104DFDC484631462A464346BDE8C1
:10074000F09F202A04DB203A00FA02F100207047D3
:100750009140C2F1200320FA03F3194390407047FF
:10076000202A04DB203A21FA02F00021704721FA06
:1007700002F3D040C2F1200291400843194670476D
:10078000202A06DBCB17203A41FA02F043EAE07355
:1007900006E041FA02F3D040C2F120029140084342
:1007A000194670470029A8BF7047401C490008BF80
:1007B00020F00100704710B4B0FA80FC00FA0CF091
:1007C00050EA010404BF10BC704749B1CCF12004C9
:1007D00021FA04F411FA0CF118BF01212143084356
:1007E000A3EB0C01CB1D4FEA00614FEA102042BF82
:1007F000002010BC704700EBC35010440029A4BF78
:1008000010BC7047401C490008BF20F0010010BC1C
:10081000704710B5141E73F1000408DA401C41F152
:10082000000192185B411A4301D120F0010010BD74
:100830002DE9F04D92469B4611B1B1FA81F202E0EA
:10084000B0FA80F220329046FFF77BFF04460F4655
:1008500040EA0A0041EA0B0153465A46084313D0C6
:10086000114653EA010019D0C8F140025046FFF783
:1008700077FF05460E46504659464246FFF761FF50
:10088000084305D0012004E020463946BDE8F08D3C
:100890000020054346EAE0762C4337430A98630577
:1008A000E40AA0EB08000022FD0A44EA47540A309B
:1008B00002D500200146E9E7010510196941DDE98B
:1008C000084500196941BDE8F04DA2E7C1F30A529D
:1008D000C1F3130140F2FF3341F480119A4202DA6E
:1008E00000200146704740F233439A42A2F233425D
:1008F00002DC5242FFF734BFFFF723BF30B5041EBE
:1009000071F1000404DB4FF00044404264EB01014C
:10091000141E73F1000405DB1C464FF000435242E5
:1009200063EB0403994208BF904230BD064C074D6B
:1009300006E0E06840F0010394E8070098471034AF
:10094000AC42F6D3FFF724FCC06B0008E06B000854
:1009500070B58C1810F8015B15F0070301D110F881
:10096000013B2A1106D110F8012B03E010F8016BAE
:1009700001F8016B5B1EF9D12B0705D40023521E31
:100980000DD401F8013BFAE710F8013BCB1A921C99
:1009900003E013F8015B01F8015B521EF9D5A14297
:1009A000D8D3002070BD21B1826842F0010282607C
:1009B00003E0826822F00102826070470021084A49
:1009C0001168084A1140D0E900231A4383681A438A
:1009D000C3681A431143044AC2F804137047000065
:1009E00004230140E030FCFF0020014021B1826877
:1009F00042F48072826003E0826822F48072826036
:100A0000704721B1826842F40072826003E082681C
:100A100022F400728260704730B502460020002345
:100A20005068104C20400D790C6844EA052420439E
:100A3000506090680C4C2040D1E903542C438D68E1
:100A40002C434D7944EA450420439060D06A20F459
:100A500070000C7D641EE4B2234340EA0350D06270
:100A600030BD0000FFFEFFFCFDF7FFC0F0B50446FF
:100A70000D4600200021092D11DDE068A5F10A06D0
:100A800006EB4607072606FA07F18843A5F10A0692
:100A900006EB460603FA06F10843E0600CE0206925
:100AA00005EB4507072606FA07F1884305EB4506DF
:100AB00003FA06F108432061072A0FDA606B561E1D
:100AC00006EB86071F2606FA07F18843561E06EB3B
:100AD000860605FA06F10843606322E00D2A0FDA64
:100AE000206BD61F06EB86071F2606FA07F1884300
:100AF000D61F06EB860605FA06F10843206310E0D0
:100B0000E06AA2F10D0606EB86071F2606FA07F13A
:100B10008843A2F10D0606EB860605FA06F10843A6
:100B2000E062F0BD816841F08041816070472DE94D
:100B3000F04104460D4616461F462A2002F048F8AA
:100B4000C4F30F2002F048F8E0B202F045F8C5F314
:100B50000F2002F041F8E8B202F03EF82B2002F03C
:100B600037F8C6F30F2002F037F8F0B202F034F88D
:100B7000C7F30F2002F030F8F8B202F02DF82C2065
:100B800002F026F8BDE8F08100BFFEE7014609B992
:100B90000B487047012901D10A48FAE7022901D11F
:100BA0000948F6E7032901D10020F2E7042901D121
:100BB0000020EEE7052901D10448EAE70020E8E734
:100BC000BC020020E40A00200C130020341B00208B
:100BD00008B525208DF8000000208DF802000120C6
:100BE0008DF80300684600F0E1FE26208DF8000035
:100BF00001208DF802008DF80300684600F0D6FE53
:100C000027208DF8000002208DF8020001208DF8C9
:100C10000300684600F0CAFE47208DF8000005205A
:100C20008DF8020001208DF80300684600F0BEFE3A
:100C300008BD21B1026842F00102026003E00268CF
:100C400022F001020260704710B500220268134BC7
:100C50001A40CC680B6823434C6923438C692343B7
:100C6000CC6923430C6A23434C6A23438C6A234395
:100C70004C6B23438C6B23431A430260426922F07E
:100C80000702D1E90B3423431A4342610B694360E5
:100C90004B6883608B68C36010BD00003F801CF010
:100CA000704710B50446204602F04EFC10BD2DE9F9
:100CB000FF4F85B081468A460020039083460798FF
:100CC000A0EB09050898A0EB0A06CDF80890CDF82E
:100CD00004A0002D01DD012705E00DB9002702E089
:100CE0004FF0FF376D42002E02DD4FF0010806E0A5
:100CF00016B94FF0000802E04FF0FF387642B542D7
:100D000001DD2C4600E03446002004901EE0019AEC
:100D100091B2029A90B2129A00F01FF803982844F8
:100D20000390B3440398A04205DD0398001B039091
:100D3000029838440290A34504DDABEB040B019804
:100D4000404401900498401C80B20490611C0498B7
:100D50008842DCDD09B0BDE8F08F70B504460D4671
:100D600016462A2001F034FF201201F035FFE0B2D0
:100D700001F032FF201201F02FFFE0B201F02CFF52
:100D80002B2001F025FF281201F026FFE8B201F028
:100D900023FF281201F020FFE8B201F01DFF2C20F4
:100DA00001F016FF304601F017FF70BD2DE9F84342
:100DB00005460E4617469846089C33463A46314645
:100DC00028460094FFF773FF43462A4631462846DB
:100DD0000094FFF76CFF43463A464146284600948C
:100DE000FFF765FF43463A46314638460094FFF721
:100DF0005EFFBDE8F883000051B18200A2F1C0425D
:100E0000126842F001038200A2F1C042136009E0BF
:100E10008200A2F1C0421268034B1A408300A3F182
:100E2000C0431A6070470000FEFF0F0030B500217C
:100E3000002200230468A400A4F1C0442168444CAB
:100E40002140D0E901452C43C5682C4305692C435A
:100E500045692C4385692C43C5692C43056A2C439D
:100E6000456A2C43856A2C43C56A2C43056B2C4389
:100E700021430468A400A4F1C04421608468082CC4
:100E80000BD10468A400A4F1C044246844F04005D8
:100E90000468A400A4F1C04425600468641CA40094
:100EA000A4F1C044226802F04042446B2468456BC0
:100EB0006D6844EA0514456BAD6844EA0524456B4A
:100EC000AD8944EA0544456B2D8A44EA0554456BD7
:100ED0002D7D44EA0564456BAD692C4322430468CB
:100EE000641CA400A4F1C0442260C46AB4F5804F1D
:100EF00024D10468A400A4F1C044D4F8043103F060
:100F00004043846B2468856B6D6844EA0514856BE7
:100F1000AD6844EA0524856B2D8A44EA0554856B47
:100F20002D7D44EA0564856BAD692C432343046839
:100F3000A400A4F1C044C4F8043107E06FF0704588
:100F40000468A400A4F1C044C4F8045130BD0000FA
:100F50008000F7FFF0B50A4600210023002400BFFF
:100F60003DE0012505FA01F3156805EA03049C42FA
:100F700034D105684F000326BE40B543056015799E
:100F80004E00B5400668354305601579012D02D045
:100F90001579022D16D185684F000326BE40B54352
:100FA000856055794E00B540866835438560456853
:100FB00001268E40B5434560456896798E40B6B2AD
:100FC00035434560C5684F000326BE40B543C56044
:100FD000D5794E00B540C6683543C560491C102917
:100FE000BFD3F0BDF0B5002300244D07ED0E02FA8B
:100FF00005F3CE1000F1200555F826504E07F70EE8
:101000000F26BE40B543CF1000F1200646F827500A
:10101000CE1000F1200555F8265045EA0304CE1005
:1010200000F1200545F82640F0BD0183704700001F
:1010300009A100200BE00A5C124B9A8000BF114A04
:10104000128802F04002002AF9D0421CD0B22A28AD
:10105000F1D300BFFEE700000D0A456E74657220F3
:10106000486172644661756C745F48616E646C655A
:10107000722C2053797374656D2048616C742E0D49
:101080000A0000000010014000B587B001210846A9
:1010900000F0ACFD0121102000F0D8FD072209214D
:1010A000AB48FFF79FFF07220A21A948FFF79AFFE5
:1010B00000208DF81A0001208DF81B0002208DF809
:1010C00018000002059002208DF8190005A9A0481B
:1010D000FFF740FF02208DF818004002059005A997
:1010E0009B48FFF737FF4FF4E13001900020ADF847
:1010F0000800ADF80A00ADF80C00ADF810000C20A7
:10110000ADF80E0001A9934801F08AFB012240F2DC
:101110002551904801F05FFB01218E4801F025FB2D
:1011200040218C4801F018FB0121084600F05EFDCB
:101130000121480400F07AFD072203218448FFF7CB
:1011400051FF00208DF81A0001208DF81B000220AD
:101150008DF818008DF818000820059002208DF8F1
:10116000190005A97A48FFF7F5FE4FF416500190D3
:101170000020ADF80800ADF80A00ADF80C00ADF89D
:1011800010000420ADF80E0001A9734801F048FBDF
:10119000012240F22551704801F01DFB01216E48EB
:1011A00001F0E3FA40216C4801F0D6FA0121022057
:1011B00000F01CFD01208DF8180000208DF81A00A9
:1011C0008DF81B0003208DF819000420059005A957
:1011D0006248FFF7BFFE0121022000F007FD012158
:1011E000880400F023FD07220A215C48FFF7FAFE7D
:1011F00007220B215948FFF7F5FE00208DF81A0051
:1012000001208DF81B0002208DF818004002059087
:1012100002208DF8190005A95048FFF79BFE022017
:101220008DF818008002059005A94C48FFF792FE42
:101230004FF4165001900020ADF80800ADF80A00F8
:10124000ADF80C00ADF810000C20ADF80E0001A9AF
:10125000434801F0E5FA012240F22551404801F0EF
:10126000BAFA01213E4801F080FA40213C4801F0E1
:1012700073FA0121442000F0B9FC0121202000F084
:10128000E5FC08220E213748FFF7ACFE08220721B3
:101290003548FFF7A7FE082211463248FFF7A2FEA5
:1012A00008220F212F48FFF79DFE00208DF81A001D
:1012B00001208DF81B0002208DF8180040030590D6
:1012C00002208DF8190005A92648FFF743FE0220E9
:1012D0008DF818008020059005A92348FFF73AFEF5
:1012E00002208DF81800C001059005A91D48FFF7E0
:1012F00031FE02208DF818008003059005A91948D9
:10130000FFF728FE4FF4E13001900020ADF808000F
:10131000ADF80A00ADF80C004FF44070ADF81000C5
:101320000C20ADF80E0001A9104801F079FA012255
:1013300040F225510D4801F04EFA01210B4801F011
:1013400014FA4021094801F007FA07B000BD000077
:101350000000024000100140004400400004024030
:1013600000480040001802400008024000140140FC
:1013700000B597B002200190002002900520039054
:10138000002004900590069007900890099008208E
:101390000A9010200B9000200C900E900F9010904F
:1013A0004FF480501190002012901390149001A8D7
:1013B0001590169008A8FFF739FD01210020FFF7CE
:1013C0001BFD17B000BD00001CB50121084600F050
:1013D0001DFC0121182000F009FC4CF6B3700090B0
:1013E00002208DF8040000208DF8060003208DF8FF
:1013F000050001208DF8070069464348FFF7AAFD64
:101400004FF68070009002208DF8040000208DF8C7
:10141000060003208DF8050001208DF807006946BD
:101420003A48FFF797FD0C2200213748FFF7DAFD15
:101430000C2201213448FFF7D5FD0C22042132484B
:10144000FFF7D0FD0C2205212F48FFF7CBFD0C2222
:1014500007212D48FFF7C6FD0C2208212A48FFF777
:10146000C1FD0C2209212848FFF7BCFD0C220A21EE
:101470002548FFF7B7FD0C220B212348FFF7B2FDEB
:101480000C220E212048FFF7ADFD0C220F211E4833
:10149000FFF7A8FD0C2207211C48FFF7A3FD0C2233
:1014A00008211A48FFF79EFD0C2209211748FFF773
:1014B00099FD0C220A211548FFF794FD0C220B21FF
:1014C0001248FFF78FFD0C2211461048FFF78AFDE6
:1014D0000C220D210D48FFF785FD0C220E210B4833
:1014E000FFF780FD0C220F210848FFF77BFD10213C
:1014F0000548FFF79AFD20210348FFF796FD80215C
:101500000148FFF792FD1CBD000C02400010024094
:101510002DE9F04707460C4615461E46DDF820909B
:10152000A019431E7819411E22463846FFF7FFFADC
:101530004FF0000804E00548A0F8009008F1010809
:1015400005FB06F04045F6D8BDE8F08700000260D4
:1015500038B5FFF739FF0A20FFF7A3FBFFF708FFB5
:101560001420FFF79EFBB02001F032FB042001F0B5
:1015700033FB00F01BFC04462146F1A001F032FBD6
:10158000F24884803A2001F023FB552001F024FB2F
:10159000B42001F01DFB002001F01EFBC02001F073
:1015A00017FB032001F018FBDF2001F015FB4020A2
:1015B00001F012FB122001F00FFB002001F00CFBE8
:1015C000012001F009FB002001F006FB432001F09F
:1015D00003FBC12001F0FCFA052001F0FDFA2F20E9
:1015E00001F0FAFA082001F0F7FA082001F0F4FA05
:1015F000002001F0F1FAC42001F0EAFA632001F0C2
:10160000EBFA002001F0E8FA082001F0E5FA0820E2
:1016100001F0E2FAC82001F0DBFA062001F0DCFA62
:101620000C2001F0D9FA162001F0D6FA242001F09E
:10163000D3FA302001F0D0FA482001F0CDFA3D2055
:1016400001F0CAFA282001F0C7FA202001F0C4FAFC
:10165000142001F0C1FA0C2001F0BEFA042001F0C0
:10166000BBFA062001F0B8FA0C2001F0B5FA1620FA
:1016700001F0B2FA242001F0AFFA302001F0ACFA08
:10168000482001F0A9FA3D2001F0A6FA282001F037
:10169000A3FA202001F0A0FA142001F09DFA0C20FA
:1016A00001F09AFA042001F097FAC92001F090FAAB
:1016B000062001F091FA0C2001F08EFA162001F0BC
:1016C0008BFA242001F088FA302001F085FA4820B6
:1016D00001F082FA3D2001F07FFA282001F07CFA27
:1016E000202001F079FA142001F076FA0C2001F0A4
:1016F00073FA042001F070FA062001F06DFA0C2054
:1017000001F06AFA162001F067FA242001F064FA69
:10171000302001F061FA482001F05EFA3D2001F02E
:101720005BFA282001F058FA202001F055FA142025
:1017300001F052FA0C2001F04FFA042001F04CFAAB
:10174000B62001F045FA002001F046FACA2001F067
:101750003FFA062001F040FA0C2001F03DFA162075
:1017600001F03AFA242001F037FA302001F034FA7F
:10177000482001F031FA3D2001F02EFA282001F036
:101780002BFA202001F028FA142001F025FA0C2071
:1017900001F022FA042001F01FFA062001F01CFAE1
:1017A0000C2001F019FA162001F016FA242001F09D
:1017B00013FA302001F010FA482001F00DFA3D2014
:1017C00001F00AFA282001F007FA202001F004FABB
:1017D000142001F001FA0C2001F0FEF9042001F0C0
:1017E000FBF9D02001F0F4F9952001F0F5F906207D
:1017F00001F0F2F9082001F0EFF9102001F0ECF906
:101800003F2001F0E9F9D12001F0E2F9022001F0D6
:10181000E3F9282001F0E0F9282001F0DDF940206B
:1018200001F0DAF9E12001F0D3F9002001F0D4F958
:10183000002001F0D1F9002001F0CEF9002001F0E4
:10184000CBF9002001F0C8F9002001F0C5F9E22031
:1018500001F0BEF9802001F0BFF92A2001F0B8F9AB
:10186000002001F0B9F9002001F0B6F9012001F0E3
:10187000B3F93F2001F0B0F92B2001F0A9F90020C5
:1018800001F0AAF9002001F0A7F9012001F0A4F964
:10189000DF2001F0A1F9112001F09AF97820FFF77B
:1018A00000FA292001F094F9C12001F091F90520F6
:1018B00001F092F92F2001F08FF9082001F08CF946
:1018C000082001F089F9002001F086F900201F4965
:1018D00088710846807950B9002002F09CFB4FF4D3
:1018E000A0701A4908814FF4F070488109E0012086
:1018F00002F091FB4FF4F070144908814FF4A0708E
:1019000048814FF6FF70114948804FF478400880B5
:10191000084640884FF4F0734FF4A0720021009005
:101920000846FFF7F5FD4FF6FF704FF4F0734FF4E4
:10193000A072002100900846FFF7EAFD38BD0000C4
:1019400049443A3058253034580D0A005C230020B1
:1019500070B504460D48D0F808010D49B1FBF0F50B
:101960000C4A2946042002F017F8084890F8800035
:1019700080280ADA054890F8801090F88000401C12
:10198000024A82F880001046445470BD682300204B
:10199000C00E16029919000801200149087070470D
:1019A0002100002000BFFEE77047000070B5002155
:1019B00000230F22C4781CB3174C246804F4E0649D
:1019C000C4F5E064C4F30721C1F10404E3B20A41A1
:1019D00044789C40E1B28478144021430C07210EE6
:1019E0000E4C05786155047804F01F050124AC40C5
:1019F00005786D11AD0005F1E025C5F8004109E05D
:101A0000047804F01F050124AC40054D06787611DA
:101A100045F8264070BD00000CED00E000E400E059
:101A200080E100E002490143024A11607047000072
:101A30000000FA050CED00E07047000070B5174893
:101A40000468001D0568001D066823462A463146C5
:101A500013A001F0C7F81FA001F0C4F81EA001F008
:101A6000C1F82DA134A001F0BDF838A138A001F0D3
:101A7000B9F83CA13EA001F0B5F8002305220121F0
:101A800040A001F0AFF84DA001F0ACF84DA001F07E
:101A9000A9F811A001F0A6F870BD0000107AFF1F90
:101AA0000D0A435055203A2053544D3332463430BA
:101AB00037494754362C204C5146503137362C206C
:101AC000554944203D2025303858202530385820AD
:101AD000253038580A0D00002A2A2A2A2A2A2A2ABA
:101AE0002A2A2A2A2A2A2A2A2A2A2A2A2A2A2A2A56
:101AF0002A2A2A2A2A2A2A2A2A2A2A2A2A2A2A2A46
:101B00002A2A2A2A2A2A2A2A2A2A2A2A2A2A2A2A35
:101B10002A2A2A2A2A0A0D0056352D303033625FD0
:101B20005379735469636BCAB5D1E95FB8B4D4D340
:101B3000C0FDD7D3000000002A20C0FDB3CCC3FBFA
:101B4000B3C62020203A2025730D0A00312E310023
:101B50002A20C0FDB3CCB0E6B1BE2020203A20251B
:101B6000730D0A00323031352D30332D3233000001
:101B70002A20B7A2B2BCC8D5C6DA2020203A202538
:101B8000730D0A002A20B9CCBCFEBFE2B0E6B1BE9C
:101B9000203A205625642E25642E2564202853548F
:101BA0004D3332463478785F53746450657269708F
:101BB000685F447269766572290D0A002A200D0A51
:101BC000000000002A20436F7079726967687420F2
:101BD0007777772E61726D666C792E636F6D20B0AA
:101BE000B2B8BBC0B3B5E7D7D30D0A0029B1064AD6
:101BF00012680243044B1A6004E0034A12688243ED
:101C0000014B1A60704700003038024029B1064A83
:101C100012680243044B1A6004E0034A12688243CC
:101C2000014B1A60704700003838024029B1064A5B
:101C300012680243044B1A6004E0034A12688243AC
:101C4000014B1A60704700004038024029B1064A33
:101C500012680243044B1A6004E0034A126882438C
:101C6000014B1A607047000044380240F0B5002173
:101C700000220024022500260223324F3F6807F08D
:101C80000C0121B1042905D0082937D105E02E4FD8
:101C9000076036E02D4F076033E02A4F3F1F3F6853
:101CA000C7F38056274F3F1F3F6807F03F036EB1D1
:101CB000264FB7FBF3F7DFF88CC0ACF1040CDCF86F
:101CC00000C0CCF3881C07FB0CF40CE01E4FB7FBE4
:101CD000F3F7DFF870C0ACF1040CDCF800C0CCF313
:101CE000881C07FB0CF4174F3F1F3F68C7F30147E1
:101CF0007F1C7D00B4FBF5F7076002E0124F076020
:101D000000BF00BF0F4F3F6807F0F0010909104FF7
:101D10007A5C0768D74047600A4F3F6807F4E05194
:101D2000890A0B4F7A5C4768D7408760054F3F6848
:101D300007F46041490B064F7A5C4768D740C7609B
:101D4000F0BD0000083802400024F40000127A00C0
:101D50002C0000201CB501210220FFF747FF0120C5
:101D60008DF8040000208DF806008DF80700032090
:101D70008DF805000420009069460248FFF7EAF854
:101D80001CBD00000004024010B504462046FFF7C9
:101D9000DFFD10BD0420014908807047180402408F
:101DA00004200149088070471A0402401CB5BF2076
:101DB00000F00EFF0948048804880488048800881D
:101DC0000190064800880090BDF80000BDF804109E
:101DD00000EB012084B220461CBD00000000026020
:101DE00070B52DED048B04462546154890ED000A8C
:101DF00010EE100AFEF716FC41EC190B9FED110BCB
:101E000053EC102BFEF74FFA41EC180BFEF736FCA3
:101E100000EE100A0A4880ED000A90ED000A10EE6C
:101E2000100AFEF7FFFB41EC180B53EC182B07A030
:101E300000F0D8FE0CA000F0D5FEBDEC048B70BD08
:101E4000240000209A9999999999A93F2072656474
:101E5000756374696F6E5F666163746F72203D2095
:101E60002566200D0A000000546573742121210DA0
:101E70000A000000704700000CB50020019000909F
:101E80003448006840F480303249086000BF31486F
:101E9000006800F4003000900198401C0190009808
:101EA00018B90198B0F5A04FF1D12A48006800F4A4
:101EB000003010B10120009001E000200090009857
:101EC000012846D123484030006840F08050214925
:101ED000403108602048006840F440401E490860D6
:101EE0001C48083000681B49083108600846006833
:101EF00040F4004008600846006840F4A0500860C4
:101F00001648091F0860081F006840F08070091F0C
:101F1000086000BF0F48006800F000700028F9D08A
:101F200040F205700E4908600A480830006820F049
:101F300003000849083108600846006840F00200C4
:101F4000086000BF03480830006800F00C00082853
:101F5000F8D10CBD00380240007000400854400722
:101F6000003C02402DE9F84F80460E4617461C46BD
:101F7000B3462046E31704EB5373DB1021464FEAC8
:101F8000E47C04EB5C7C4FEAEC0CA4EBCC0CBCF1E5
:101F9000000F02D04FF0010C01E04FF0000C634441
:101FA000224604EBD27C4FEA6C0C03FB0CF3DBB251
:101FB0000093A7F12000C7B2002554E00C2C07D1F4
:101FC00007EB47002A4901EB800010F8059013E069
:101FD000102C05D1274800EB071010F805900BE0F6
:101FE000182C07D107EBC700234901EB800010F83C
:101FF000059001E0BDE8F88F4FF0000A2DE009F0F0
:10200000800030B11D48028831464046FEF7A5FEEB
:1020100007E00A9828B91948428831464046FEF739
:102020009CFE4FEA49604FEA1069701C86B2B6F513
:10203000F07F00DBDEE7A6EB0B00A04209D15E4695
:1020400008F101001FFA80F8B8F5A07F00DBD1E7A6
:1020500006E00AF1010000F0FF0ABAF1080FCEDB3A
:1020600000BF681CC5B200988542A7DB00BFC1E76E
:1020700060510008D4550008C45B00085C230020B0
:102080002DE9F84F04460D4690469946DDE90A676A
:1020900004F0FF0A08EB04001FFA80F809EB0500C2
:1020A0001FFA80F916E0444502DB5446A81985B2B0
:1020B0004D4500DB14E0002000903A783346294675
:1020C0002046FFF74FFF304606EBD07104EB61016D
:1020D0008CB27F1C38787E2802DC38782028E2DA3F
:1020E00000BFBDE8F88F10B500F002F810BD000089
:1020F00010B51B48006840B119480068401E1849D7
:10210000086010B9012017490870002408E004EBAA
:102110004401154A02EB810001F0DCFB601CC4B2F3
:10212000042CF4DB11480068401C10490860084684
:1021300000686FF00041884202D100200B4908601E
:1021400001F0C7FB0A480078401CC0B2084908707B
:102150000A2803DB0020087001F0BAFB10BD000064
:102160000000002004000020C4010020080000201E
:102170001C00002010B51548006840F47000134999
:1021800008601348006840F0010011490860002011
:102190000F49083108600E4800680E4908400C4994
:1021A00008600D48091D0860081F006820F48020A1
:1021B000091F0860002006490C310860FFF75CFE2B
:1021C0004FF0006001498039086010BD88ED00E0E3
:1021D00000380240FFFFF6FE10300024F0B52DED70
:1021E0000A8BA1B000220421394800F068F90024CC
:1021F0009FED380A10EE105A002603A8FFF736FDAF
:10220000334800F03CF90446002C4ED02046FEF73F
:10221000E3F941EC190B2E4800F02EF90746FEF7C2
:10222000DBF941EC1C0B9FED2C0B53EC102BFEF754
:10223000E1F841EC1B0B9FED2A0B53EC102BFEF742
:10224000D9F841EC1A0B53EC192BFEF745F941EC88
:10225000180BFEF713FA05462846FEF7E3F941ECA2
:10226000180B53EC182B20A114A800F0CBFC14A8D9
:1022700010210B46C822CDE9001082211E20FFF755
:10228000FFFE04984008B0FBF4F632461AA107A8F6
:1022900000F0B8FC07A810210B46C822CDE90010B9
:1022A00096211E20FFF7ECFE04E09FED0A0A10EED7
:1022B000105A00260421064800F0C0F8012204212B
:1022C000034800F0FCF821B0BDEC0A8BF0BD000023
:1022D0000004004000000000000000000000F03F8B
:1022E0000000000000005940447574794379636C24
:1022F00065203D20253366004672657175656E6305
:1023000079203D202564000010B501210A4800F025
:10231000C5F801280AD10949086980470021064803
:1023200000F087F96421044800F079F9012102489E
:1023300000F084F810BD000000080040CC00002030
:1023400010B50221214800F0A9F858B102211F4818
:1023500000F074F8002202211C4800F0B0F81C487C
:10236000006880470421194800F098F858B104210A
:10237000164800F063F800220421144800F09FF88A
:102380001448006880470821104800F087F858B1C9
:1023900008210E4800F052F8002208210B4800F0F6
:1023A0008EF80D48006880471021084800F076F844
:1023B00058B11021054800F041F8002210210348CF
:1023C00000F07DF805480068804710BD000C004013
:1023D0000C00002010000020140000201800002035
:1023E0000A884B881A438B881A43CB881A430B8977
:1023F0001A434B891A438B891A43A0F8442070472B
:1024000021B1828842F00102828004E082884FF686
:10241000FE731A408280704730B5002301248C403F
:10242000A3B2048C9C430484048C02FA01F5ADB27F
:102430002C43048430BDCA4302827047CA430282DF
:10244000704721B1028842F00102028004E0028854
:102450004FF6FE731A400280704731B1B0F8442045
:1024600042F40042A0F8442005E0B0F84420C2F352
:102470000E02A0F8442070470146486B70470146A1
:10248000886B70470146486A704702460020138AED
:102490000B400BB1012000E00020704730B5024630
:1024A000002000230024158A05EA0103958905EA26
:1024B000010413B10CB1012000E0002030BD1AB1BD
:1024C00083890B43838102E083898B438381704737
:1024D00070B5002400220023058C4FF6FE763540AF
:1024E0000584028C8388048B4FF68F752C40B51EB3
:1024F0002C400D882C43751E2A408D892A434D8817
:102500002A43104DA84202D00F4DA84213D14FF6D6
:10251000F7752A40CD892A434FF6FB752A408D88EE
:102520002A434FF6FF652B404FF6FF552B400D8A8F
:102530002B434D8A2B43838004838D68456302843B
:1025400070BD000000000140000401400A46002167
:10255000018B4FF6F7731940114301837047000058
:1025600070B5002400220023058C4FF6EF7635402D
:102570000584028C8388048B48F6FF752C404FF647
:10258000FF452C400D884FF6FF7606EA05252C43C3
:102590004FF6DF752A408D8906EA05152A434D88D6
:1025A00006EA05152A43154DA84202D0144DA8424B
:1025B0001DD14FF67F752A40CD894FF6FF7606EA8A
:1025C00005152A434FF6BF752A408D8806EA051582
:1025D0002A434FF6FF352B404FF2FF752B400D8AF3
:1025E00006EA85052B434D8A06EA85052B43838041
:1025F00004838D688563028470BD00000000014083
:10260000000401400A460021018B4FF2FF7319407C
:102610004FF6FF7303EA0223194301837047C16237
:1026200070474163704781637047C16370470164BD
:10263000704741627047000000220288184B9842A0
:102640000ED0184B98420BD0B0F1804F08D0164BEB
:10265000984205D0154B984202D0154B984204D1B0
:102660004FF68F731A404B881A43124B984207D08B
:10267000114B984204D04FF6FF431A400B891A437E
:1026800002804B68C3620B880385054B984202D0D9
:10269000044B984201D18B7A0386012383827047D1
:1026A0000000014000040140000400400008004018
:1026B000000C004000100040001400407FB50446AC
:1026C0000D4601210420FFF7B1FAADF800500020BB
:1026D000ADF802000194ADF8080069460D48FFF717
:1026E000ABFF012211460B48FFF7E9FE0121094823
:1026F000FFF7A7FE1E208DF80C0003208DF80D00BB
:102700008DF80E0001208DF80F0003A8FFF74EF999
:102710007FBD00000008004010B5024800F0F4F84A
:1027200010BD0000BC02002010B5024800F0ECF81B
:1027300010BD0000E40A002010B5024800F0E4F8E3
:1027400010BD00000C13002010B5024800F0DCF8AA
:1027500010BD0000341B002001F40072B2F5007FB0
:1027600000D100BFCA430280704721B1828942F480
:102770000052828104E082894DF6FF731A40828103
:10278000704770B50246002400230025002040F663
:102790006A16B14200D100BFC1F3421501F01F0318
:1027A000012606FA03F3012D02D19689334006E093
:1027B000022D02D1168A334001E0968A33400C1272
:1027C000012606FA04F41688344013B10CB1012036
:1027D00000E0002070BDF0B503460024002600256F
:1027E000002040F66A17B94200D100BF1846C1F375
:1027F000421401F01F06012707FA06F5012C01D14A
:102800000C3004E0022C01D1103000E014301AB179
:1028100007682F43076002E00768AF430760F0BD19
:102820002DE9FF4705460E460024A14600BFA046FD
:10283000B08900B100BF2C8A24F44054F0880443CE
:102840002C82AC8941F20C608443B0883189084302
:10285000718908430443AC81AC8A24F44074B08984
:102860000443AC826846FFF701FA2048854202D053
:102870001F48854202D1DDF80C9001E0DDF8089098
:10288000A88900F4004040B109EBC90000EB091031
:1028900031684900B0FBF1F707E009EBC90000EB34
:1028A000091031688900B0FBF1F76420B7FBF0F044
:1028B00004012009642101FB1078A88900F400407C
:1028C00040B1322000EBC800B0FBF1F000F007008F
:1028D000044308E0322000EB08106421B0FBF1F063
:1028E00000F00F0004432C81BDE8FF870010014079
:1028F0000014014001468888C0F308007047C1F306
:10290000080282807047000070B5044640F22551ED
:102910002068FFF736FF00284DD02068FFF7EAFF58
:10292000C5B2E18AA06845544A48008800F40040D6
:1029300058BB4848008800F4804060B10A2D03D09D
:1029400000204449088020E04248008840F40040CC
:102950004049088019E00D2D06D13E48008840F41A
:1029600080403C49088010E03A480088C0F30D00E0
:1029700039490D5437480088401C364908800846BC
:102980000088C72801DD00200880E08A401C80B252
:10299000E082E189884201DB0020E082608BE189EE
:1029A000884202DA608B401C6083606A10B128465E
:1029B000616A884700BF40F227712068FFF7E1FE97
:1029C00008B3A08A60B9002240F227712068FFF79F
:1029D00002FF012240F226612068FFF7FCFE37E08B
:1029E000638A6268D15C2068FFF789FF608A401CB7
:1029F00080B26082A189884201DB00206082A08AC7
:102A0000401EA08224E040F226612068FFF7B9FE54
:102A1000F0B1A08A50B9002240F226612068FFF789
:102A2000DAFE206AA0B1206A804711E0638A6268FA
:102A3000D15C2068FFF763FF608A401C80B260822F
:102A4000A189884201DB00206082A08A401EA0820A
:102A500070BD00001E000020F40100202DE9F041AF
:102A600004460E461746002527E00CE0012000F042
:102A7000EFF8B4F81480002000F0EAF8A08940458F
:102A800000DD01E000BFF1E700BF705D228A6168F0
:102A90008854012000F0DCF8208A401C80B220829B
:102AA000A189884201DB00202082A08A401CA082EC
:102AB000002000F0CDF8681C85B2BD42D5DB0122B4
:102AC00040F227712068FFF786FEBDE8F081000024
:102AD0002B482C4908602C4848602C4888604FF4EB
:102AE00080608881C881002008824882C88208836B
:102AF00048838882C8610862486225482549086081
:102B0000254848602548886001208881C002C88126
:102B1000002008824882C882088348838882C8616E
:102B2000086248621E481F4908601F4848601F48E5
:102B300088604FF480608881C881002008824882C4
:102B4000C8820883488388821948C8611948086286
:102B50001948486219481A4908601A4848601A48D2
:102B600088604FF480608881C88100200882488294
:102B7000C882088348838882C861086248627047B7
:102B800000100140BC020020E4020020E406002006
:102B900000440040E40A0020200000200C0B00202C
:102BA000004800400C13002034130020341700208C
:102BB000951D0008A11D0008891D00080014014092
:102BC000341B00205C1B00205C1F002000BFFEE7C0
:102BD0004FF0C041088070470149088070470000ED
:102BE000000002600FB4054B10B503A9044A029817
:102BF00000F0F4F810BC5DF814FB00006F3D000815
:102C0000C00100200FB4084B10B504A902AA039814
:102C100000F0E4F8044602A9002000F076FC20460B
:102C200010BC5DF814FB00000B35000802E008C87A
:102C3000121F08C1002AFAD170477047002001E036
:102C400001C1121F002AFBD1704780F31088704722
:102C500080F31088704700002DE9FF5F82B00021EB
:102C6000DDE90430020DDDF840B0034318D044F62E
:102C70001050A2F2FF3242431514119801281FD0C0
:102C8000A5EB0B00401C5FEA000A4FF000064E4F18
:102C9000DFF83891B046504615D5CAF1000413E06C
:102CA000119801244AA3012801D16FEA0B0102986F
:102CB000119AC0E90031C0E9024206B0BDE8F09FB8
:102CC000CBF10000DFE704460021404A491842EBFF
:102CD0000450CDE9001012E0E00707D032463B4631
:102CE00040464946FDF786FB8046894632463B46CC
:102CF00010461946FDF77EFB06460F466410002C71
:102D0000EAD1DDE90401DDE90023BAF1000F06DABA
:102D1000FDF770FB42464B46FDF76CFB05E0FDF707
:102D2000DBFB42464B46FDF7D7FB04460E4600222E
:102D3000284BFDF7E3FD03D84FF0FF30014607E0D5
:102D40000022254B20463146FDF7ADFAFDF7BEFDCA
:102D5000102409E0002C0ADB0A220023FDF7C0FC46
:102D6000039B30321A55641E50EA0102F2D1641CF2
:102D7000039AC4F111031444119A012A03D00122C9
:102D800008430DD10AE0084304D000204FF0110B96
:102D9000119072E7A3EB0B056D1E0DE05B4504DDA2
:102DA0004FF0000205F1010504E003DA4FF00002E4
:102DB000A5F10105002AECD002981199C0E9023171
:102DC000C0E9004579E70000000014400000F03F32
:102DD000300000000000F0430000E03F2DE9FF4F0D
:102DE00095B09B468946064600250FE2252877D1F7
:102DF00000242746F84A0121059400E0044316F810
:102E0000013F203B01FA03F01042F7D130782A2825
:102E100011D06FF02F033078A0F13002092A16D8B4
:102E2000059A44F0020402EB820203EB42021044D2
:102E3000761C0590EFE759F8042B0592002A03DA77
:102E4000504244F40054059044F00204761C30785B
:102E50002E2816D116F8010F44F004042A280DD0AC
:102E60006FF02F023078A0F13003092B09D807EB5F
:102E7000870302EB4303C718761CF3E759F8047B7A
:102E8000761C30786C280FD006DC4C2817D06828C8
:102E90000DD06A2814D104E0742810D07A280FD1FC
:102EA0000DE044F400140AE044F4801401E044F41A
:102EB00040147278824202D104F58014761C761C8C
:102EC000307866280BD013DC582877D009DC00282E
:102ED00075D04528F6D04628F4D047281AD19DE170
:102EE00018E0632835D0642879D0652812D195E19F
:102EF000702873D008DC6728F1D069286FD06E285D
:102F00000DD06F2806D1B5E073282CD0752875D068
:102F1000782874D05A46179990476D1C75E1C4F310
:102F20000250022809D003280DD0D9F80010042837
:102F30000DD00D6009F1040967E1D9F80010EA1716
:102F4000C1E90052F6E7D9F800100D80F2E70D70E4
:102F5000F0E719F8041B8DF8001000208DF801002F
:102F6000EA46012003E059F804AB4FF0FF30610757
:102F70004FF0000102D40DE008F101018846B9428A
:102F80000FDA8045F8DB1AF808100029F4D108E0C0
:102F900008F1010188468142FADB1AF8081000297D
:102FA000F6D105985B46A0EB080721463846179AEC
:102FB00000F094FA284400EB080507E04DE029E111
:102FC0000DE01AF8010B5A4617999047B8F101081D
:102FD000F7D25B4621463846179A13E142E00A22AF
:102FE0000092C4F302524FF0000A022A08D059F8A6
:102FF00004CB032A4FEAEC710AD00DE029E02AE065
:1030000009F1070121F00702F2E802C1914609E047
:103010000FFA8CFC4FEAEC71042A03D14FFA8CFCB6
:103020004FEAEC71002907DA0A460021DCF1000CB6
:1030300061EB02012D2202E0220504D52B228DF83E
:103040000420012203E0E20701D02022F7E79046A6
:1030500059E00A2102E010220DE010214FF0000A91
:1030600000910BE010224FF0000A44F004040827FE
:10307000009203E008224FF0000A0092C4F30252CB
:10308000022A05D059F804CB0021032A08D009E010
:1030900009F1070121F00702F2E802C1914605E0BB
:1030A0001FFA8CFC042A01D10CF0FF0C4FF0000831
:1030B000220728D5702806D0009B83F0100353EA1E
:1030C0000A0305D00EE040228DF80420012208E01A
:1030D0005CEA010206D030228DF804208DF805004C
:1030E00002229046009B83F0080353EA0A030AD1A8
:1030F0005CEA010201D1620705D530228DF8042077
:103100004FF001087F1E582804D034A003900EA869
:1031100002900DE036A0F9E753466046009AFDF7AD
:10312000DFFA84460398825C0298401E0290027087
:103130005CEA0100F0D1029806A9081A00F1200A01
:10314000600702D524F4803400E00127574502DDF2
:10315000A7EB0A0000E0002000EB0A0100900598B0
:103160004144401A0590E00306D45B462146179A75
:10317000059800F0B3F90544002706E001A85A4677
:10318000C05D179990476D1C7F1C4745F6DBE00337
:103190000CD55B462146179A059800F09FF9054427
:1031A00004E030205A46179990476D1C0099481E3C
:1031B00000900029F5DC08E0029802995A46007850
:1031C000491C0291179990476D1CBAF10001AAF1B0
:1031D000010AF1DC65E100000928010030313233D9
:1031E0003435363738396162636465660000000043
:1031F000303132333435363738394142434445462D
:103200000000000000F058F90544761C30780028D2
:103210007FF4ECAD19B02846BDE8F08F620700D40A
:10322000062709F1070222F0070CFCE80223E14619
:1032300003F000485FEA080C02D00FF2702C0DE09A
:103240005FEA045C02D50FF2682C07E05FEAC47CF9
:1032500002D00FF2602C01E0AFF2700C4FF0FF389B
:1032600023F00043CDF850C065280CD006DC45287B
:1032700009D046281DD047283DD13DE0662818D00A
:1032800067287ED138E00021112F01DB112000E0FA
:10329000781CCDE9000106A90EA8FFF7DDFCDDE9E9
:1032A0000F010E9A03910021009207F1010A049187
:1032B0004DE04FF000400097CDE9011006A90EA89F
:1032C000FFF7CAFCDDE90F0203920E9B1199002261
:1032D000DDF80CA00093049211B9791C00EB010AEF
:1032E000B7EB0A0004D4C0F1FF3007F1010A0490E3
:1032F000AAEB0700019044E0012F00DA012700212A
:10330000112F01DD112000E03846CDE9000106A9AA
:103310000EA8FFF7A1FCDDE90F010E9A0391002131
:1033200004910092BA4621070CD40399514500DA62
:103330008A46BAF1010F05DD009AAAF10101515C3C
:10334000302908D0B84202DA10F1040F06DA012160
:10335000CDE9011015E0AAF10101E9E7002805DC3B
:10336000049901440491AAEB000102E0411C51457B
:1033700000DD8A460499401A401C01904FF000403D
:103380000290200704D40198504501DBCDF8048059
:1033900000208DF84F0002980DF14F07B0F1004F5B
:1033A00025D02B200E9002984FF0020800280CDA4E
:1033B000404202902D200E9007E00A210298FDF76E
:1033C00079F93031029007F8011DB8F10001A8F138
:1033D0000108F2DC02980028EFD1791E0E980870DF
:1033E000307800F0200040F0450007F8020D12A8E8
:1033F000C01B00F107081498007800B1012000EB11
:103400000A01019801EBE07105984144401A401E01
:103410000590E00306D45B462146179A059800F014
:103420005DF805441498007818B15A4617999047EA
:103430006D1CE00324D55B462146179A059800F0E1
:103440004DF805441CE00498002807DBDDE9030182
:10345000884203DD0098405C179901E017993020FD
:103460005A469047049805F10105401C04900198C4
:10347000401E019004D12E205A46179990476D1C8A
:10348000BAF10001AAF1010ADDDC05E017F8010B31
:103490005A46179990476D1CB8F10001A8F1010830
:1034A000F4DC5B462146179A0598ABE62D00000038
:1034B0002B000000200000002DE9F041044600250B
:1034C0001E461746880404D405E039462020B0473C
:1034D0006D1C641EF9D52846BDE8F0812DE9F04148
:1034E000044600251E469046C80301D5302700E05B
:1034F0002027880404D505E041463846B0476D1CB6
:10350000641EF9D52846BDE8F0810A68531C0B609B
:10351000107070470146042901DB0020704701EB61
:103520004100084A02EB80004078012808D10020C1
:1035300001EB4102034B03EB820250700120EDE7E7
:103540000020EBE7C401002010B5044604B910BD0B
:10355000012C00D102240120FFF777FB0948046009
:10356000002009490870FFF770FB06E000F038F80A
:1035700005480078012800D100E0F7E700BF00BF50
:10358000E5E700000000002004000020F0B503463D
:1035900000224FF0E02675690F4E36680F4FB6FBDC
:1035A000F7F606FB03F400BF4FF0E026B16910E028
:1035B0004FF0E026B06988420BD0884202D20E1A42
:1035C000324402E02E1A0E4432440146A24200D395
:1035D00000E0EDE700BFF0BD3C00002040420F00DE
:1035E0007047000010B500F043F900F0F3F8FDF764
:1035F000AFFF00F0C1F806484168542088476421B5
:1036000044F6206000F02CFA00F004F810BD000031
:10361000CC00002000B59BB001213848FEF7E6FA47
:1036200001218802FEF712FB4FF0806002903448BF
:103630000390344804900020059014200690002048
:1036400007904FF4806008904000099080000A9035
:1036500040110B9040020C9000200D9001200E9024
:1036600000200F90109002A92748FDF7EDFA0121E4
:103670002548FDF7DEFA0220009003208DF80400B3
:1036800000208DF8070069462048FDF763FC002004
:10369000119012901390149011A8FDF78FF900204B
:1036A00015908DF8580001208DF8590000201790D2
:1036B0001890199001208DF8680015A910484C3811
:1036C000FDF7AAF901231A460B210D484C38FDF7E6
:1036D000CDF901210A484C38FDF793F9012108483A
:1036E0004C38FDF783F9012105484C38FDF75BF9AB
:1036F00003484C38FDF716FA1BB000BD040060000B
:103700004C220140F82400201064024000080240CE
:103710007FB501210820FEF789FA144800684608A1
:103720001348B6FBF0F085B24FF6FF740294ADF883
:1037300004500020ADF80C00ADF8060001A90D48BA
:10374000FEF77AFF01210B48FEF77BFE32208DF851
:10375000000003208DF8010000208DF802000120F8
:103760008DF803006846FEF721F97FBD3C0000207C
:1037700040420F00000C00401CB501210820FEF75C
:1037800035FA012000F07EF8022000F07BF80320DB
:1037900000F078F8042000F075F801208DF804009E
:1037A00000208DF806008DF8070003208DF8050035
:1037B0004FF48050009069460548FDF7CBFB4FF46D
:1037C0000050009069460248FDF7C4FB1CBD000094
:1037D000000C024070B5002416E0002004EB440108
:1037E0001F4A02EB8101486004EB440102EB8101B6
:1037F000886004EB440102EB8101487004EB440152
:1038000002F82100601CC4B2042CE6DB15480068F5
:103810004FF47A72B0FBF2F1481EB0F1807F00D312
:103820001BE0481E4FF0E022506150170F22002885
:1038300007DA13071E0E0C4B00F00F052D1F5E5507
:1038400003E013071D0E094B1D5400BF00204FF06D
:10385000E02290610720106100BFFFF759FF70BDA3
:10386000C40100203C00002018ED00E000E400E06E
:1038700010B5FFF72DF9FDF707FCFEF76BFAFDF722
:10388000A7F910BD411EC8B220B94FF48051054AB6
:10389000118005E0012803D14103024A921C1180E6
:1038A00070470000180C0240012806D1074909683A
:1038B00081F48051054A116007E0022805D10349CF
:1038C000096881F40051014A11607047140C0240EC
:1038D00070477047416851B14168491E416031B934
:1038E000012141700178012901D18168416070474F
:1038F00070B504460D46042C06DB124A12A11DA029
:10390000FFF770F900BFFEE70120FFF79EF904EB17
:103910004400204901EB8000456004EB440001EBCA
:1039200080008560002004EB44011A4A02EB81010B
:103930004870012004EB440102F821000020FFF749
:1039400084F970BD3F5100082E2E5C2E2E5C5573FD
:1039500065725C6273705F73746D3332663478784D
:103960005C7372635C6273705F74696D65722E6301
:10397000000000004572726F723A2066696C652023
:1039800025732C2066756E6374696F6E202573280D
:10399000290D0A00C40100202DE9F04104460E461D
:1039A0001546052E00D3761F2848FEF76BFD074607
:1039B00007EB0608012C0FD1254805604146234836
:1039C000FEF72FFE02212148FEF738FD01220221D9
:1039D0001E48FEF774FD37E0022C0FD11D4805602C
:1039E00041461A48FEF71FFE04211848FEF726FD3F
:1039F000012204211548FEF762FD25E0032C0FD1BA
:103A00001548056041461148FEF70FFE08210F4892
:103A1000FEF714FD012208210C48FEF750FD13E0CB
:103A2000042C0FD10D48056041460848FEF7FFFD04
:103A300010210648FEF702FD012210210348FEF77F
:103A40003EFD01E0BDE8F08100BFFBE7000C004057
:103A50000C0000201000002014000020180000209E
:103A60002DE9F0412DED0C8B8EB006460C4600255D
:103A7000A846002701210220FEF7E8F801210720CF
:103A8000FEF7B4F8C0200C9002208DF8340003201B
:103A90008DF8350000208DF8360001208DF83700B4
:103AA0000CA97548FDF756FA20200C900CA9734814
:103AB000FDF750FA4FF480400C900CA97048FDF7C8
:103AC00049FA032205216D48FDF78CFA03220621ED
:103AD0006948FDF787FA032207216748FDF782FA54
:103AE00003220E216648FDF77DFA700065490968DA
:103AF000B1FBF0F0401E85B20020ADF82400ADF817
:103B000026000A95ADF82C0009A95F48FEF794FD40
:103B10003020ADF810000120ADF81200C4F57A7025
:103B2000FCF749FD41EC1D0B9FED580B53EC102B9E
:103B3000FCF760FC41EC1C0B9FED560B53EC102B7B
:103B4000FCF7CAFC41EC1A0B681CFCF734FD41EC95
:103B50001B0B53EC1A2BFCF74DFC41EC190B9FEDA2
:103B60004B0B53EC102BFCF73FFC41EC180BFCF714
:103B700040FD074606970020ADF81C000420ADF874
:103B800014000020ADF81E00ADF82000ADF82200B2
:103B900004A93D48FEF79CFC08213B48FEF7D6FCF3
:103BA0000020ADF81C00ADF81E000120ADF8120099
:103BB0000420ADF814002046FCF70EFD41EC1D0B6F
:103BC0009FED320B53EC102BFCF714FC41EC1C0B5B
:103BD0009FED320B53EC102BFCF77EFC41EC1A0BE3
:103BE000681CFCF7E8FC41EC1B0B53EC1A2BFCF7B0
:103BF00001FC41EC190B9FED250B53EC102BFCF74E
:103C0000F3FB41EC180BFCF7F4FC80460020069017
:103C100004A91D48FEF7A4FC08211B48FEF7F2FC8E
:103C20000020ADF80C00ADF808004FF40050ADF8DE
:103C30000A005020ADF806000020ADF804004FF453
:103C40008060ADF802004000ADF8000069460E4803
:103C5000FEF7C6FB01210C48FEF7FFFB01210A48D5
:103C6000FEF7CEFB01210848FEF7EBFB0EB0BDECE2
:103C70000C8BBDE8F081000000080240000002400B
:103C8000000402403C00002000040140000000004D
:103C90000000F03F0000000000408F4000000000E6
:103CA0000000594070B52DED0C8B044600261B48D2
:103CB000006885B2C4F57A70FCF77DFC41EC1D0B01
:103CC0009FED170B53EC102BFCF794FB41EC1C0BF6
:103CD0009FED150B53EC102BFCF7FEFB41EC1A0B80
:103CE000681CFCF768FC41EC1B0B53EC1A2BFCF72F
:103CF00081FB41EC190B9FED0A0B53EC102BFCF7E9
:103D000073FB41EC180BFCF774FC06463146034884
:103D10002C38FEF786FCBDEC0C8B70BD2C040140EA
:103D2000000000000000F03F0000000000408F4055
:103D30002DE9F04105460E4617462846FCF726FFBA
:103D400004460CB9BDE8F081E06908B1E06980473C
:103D50003A4631462046FEF781FE00BFF2E713B532
:103D60000446012201A92046FFF7E2FF1CBD70B501
:103D700004460D46E1B20020FFF7F1FF204670BD7A
:103D80002DED0A8BA0B064249FED800A8DED0B0A07
:103D9000B2EE0E0A8DED080A9FED7D0A8DED090A3F
:103DA00002A8FCF77BFA012102A8FCF75BFA4FF4AA
:103DB000A060FDF737FEFFF715FCFDF73FFE4FF45F
:103DC0007840744908804FF4FA710020FFF790FDA5
:103DD00064210120FFF78CFD01220BA90BA8FCF741
:103DE000EFF90B98FCF71EFC41EC1A0B53EC1A2B65
:103DF00069A0FEF7F7FEC7E00020FFF78BFB10B1CC
:103E00000120FFF751FD0120FFF784FB0028F2D0CD
:103E10000025002604E0644830F816000544761CAE
:103E2000142EF8D31420B5FBF0F52846FCF7D4FB8C
:103E300041EC1C0B9FED5D0B53EC102BFCF7DAFAF9
:103E400041EC1B0B9FED5B0B53EC102BFCF7CCFAFA
:103E500041EC1A0BFCF712FC09EE900A574890ED62
:103E6000000A69EE808A18EE900AFCF7DBFB41EC51
:103E70001A0B53EC1A2B52A10CA8FEF7C3FE0CA888
:103E800018210B46C822CDE9001064211E20FEF740
:103E9000F7F818EE900AFCF7C5FB41EC1A0B53EC4F
:103EA0001A2B4AA0FEF79EFE18EE900AFCF7BAFB0A
:103EB00041EC1B0B9FED490B53EC102BFCF797FAD1
:103EC00041EC1A0BFCF7DAFB08EE100A02A890EDA1
:103ED000010AD0ED030A20EE200AD0ED000A00EE20
:103EE000880AD0ED020A90ED041A00EE810AD0EDA6
:103EF000050A30EE200AB0EE409A90ED030A80EDFC
:103F0000040A80ED038A80ED059A00BF00BF00EE31
:103F1000104AB8EE400A30EE090ABCEEC00A10EEB4
:103F2000100A84B218EE900AFCF77CFB41EC1A0BE5
:103F30009FED2C0B53EC102BFCF788FB06D8C82CFC
:103F400000DBC8241E2C09DC1E2407E0B4F5FA7F30
:103F500001DB4FF4FA741E2C00DC1E242046FFF710
:103F6000A1FE214621A0FEF73DFE224623A10CA87A
:103F7000FEF748FE0CA818210B46C822CDE9001018
:103F800082211E20FEF77CF836E70000A4709DBF5A
:103F90000AD7A33D5C2300200A0D205631203D2086
:103FA0002566200A0D000000F8240020666666667B
:103FB00066664A3FB81E85EB51B89E3F240000203C
:103FC000566F7574203D203A25660000566F757453
:103FD000203D202566200D0A0000000000000000A2
:103FE0000040444000000000004042406475747985
:103FF0005F6379636C65203D202564006475747986
:104000005F6379636C65203D203A256420000000E1
:1040100001460868704710B5044634B93620FEF7EB
:10402000D7FD0020FEF7D8FD05E03620FEF7D0FDD5
:104030006020FEF7D1FD10BD30B595B0054613AB3D
:1040400012AA09A9284600F039FA044614B12046FC
:1040500015B030BD0020149026E0224909689DF873
:10406000502001EBC20113AB11AA486801A900F06E
:1040700025FA04460CB12046EAE709A901A800F098
:10408000BBFC60B99DF844009DF84810884201DDF2
:104090000220DDE79DF85000124988750AE09DF87E
:1040A0005000401CC0B214900E48007D9DF8501086
:1040B0008842D2DC00BF0B48007D9DF8501088423A
:1040C00001D10420C4E714A9284600F0D7FA044619
:1040D0000CB12046BCE79DF850000249487500200D
:1040E000B6E70000CC0000202DE9F0419AB09C48D2
:1040F000847D007DA04202DC1AB0BDE8F0819849C1
:10410000096801EBC40106AB07AA486808A900F0DA
:10411000D5F908A993A0FEF765FD002644E0904874
:10412000008B0121B1400840D8B122218FA0FEF7B9
:1041300059FD304600F028FB89492431471839469B
:104140008BA0FEF74FFD222188A0FEF74BFD3046E5
:1041500000F01AFB82492431084410A941F82600D6
:1041600018E0304600F010FB7D492431085810A9B2
:1041700041F826007A48C07D30B910A850F82610C2
:104180007CA0FEF72FFD05E010A850F826107AA0BD
:10419000FEF728FD9DF81C00401EB04202D078A01A
:1041A000FEF720FD701CC6B29DF81C008642B6DBEF
:1041B00074A0FEF717FD00F039FB6948407D0B281D
:1041C0000DD2DFE800F0060D151E27323F4E5F725C
:1041D00087006349096851F834008047054690E03C
:1041E0005F4A126852F8341010988847054688E0F4
:1041F0005B4B1B6853F83420DDE9100190470546FE
:104200007FE0574F3F6857F8343010A807C89847E9
:10421000054676E0DFF848C1DCF800C05CF8347091
:1042200010A80FC8B84705466BE01498DFF830C1F6
:104230000090DCF800C05CF8347010A80FC8B847D4
:1042400005465EE0DDE91401DFF814C1CDE90001A7
:10425000DCF800C05CF8347010A80FC8B8470546F9
:104260004FE0DDE914121698DFF8F4C0CDE9001232
:104270000290DCF800C05CF8347010A80FC8B84792
:1042800005463EE0DDE91423DDE91610DFF8D0C075
:10429000CDE90023CDE90210DCF800C05CF83470F1
:1042A00010A80FC8B84705462BE0DDE91523DDE966
:1042B0001710CDE90123CDE903101498DFF8A0C051
:1042C0000090DCF800C05CF8347010A80FC8B84744
:1042D000054616E0DDE91623DDE91810CDE90223D5
:1042E000CDE90410DDE91401DFF874C0CDE9000167
:1042F000DCF800C05CF8347010A80FC8B847054659
:1043000000BF00BF00F050FA9DF8180001280CD142
:104310001348C07D20B929461BA0FEF763FC07E0C7
:1043200029461BA0FEF75EFC02E018A0FEF75AFC2F
:104330000B4890F8EC0088B10948D0F8F0000A2149
:10434000B0FBF1F201FB12070548D0F8F000B0FB1A
:10435000F1F83A46414611A0FEF744FC00BFCBE617
:10436000CC0000200D0A2573280000002563000002
:1043700025730000256C750030582558000000009A
:104380002C000000290000003D256C753B0D0A0043
:104390003D305825583B0D0A0000000046756E63FD
:1043A00074696F6E2052756E2054696D653A25648C
:1043B0002E2531646D730D0A00000000F0B5034630
:1043C0001546002000220026002455E01F782C2FDF
:1043D00001D104B901221F78292F01D01F780FB90C
:1043E00004B94AE0002E34D11F78302F02DB1F7849
:1043F000392F11DD1F78612F02DB1F78662F0BDD4F
:104400001F78412F02DB1F78462F05DD1F78582FBC
:1044100002D01F78782F0CD102B12EE01F78612FC7
:1044200003DB1F78203F0F7001E01F780F70491CDD
:104430001FE01F78222F04D102B11EE001260124C3
:1044400017E01F78202F14D01F782C2F11D0FF26B3
:1044500013E01F78222F00D1002402B10DE044B1F7
:104460001F785C2F02D15B1C471CF8B21F780F70BD
:10447000491C471CF8B25B1CA8E700BF00270F705F
:104480002E70F0BD10B50446002010700BE02078AF
:104490000870641C491C1078401C107010789842F9
:1044A00001DB012010BD2078202802D020780028D0
:1044B000EDD10020087000BFF4E700002DE9FF4FA8
:1044C00085B0804689460027002004900390012093
:1044D00002904FF0000B002544461DE02078202874
:1044E00016D005F07F00052812DA0DB945F08005D9
:1044F00005F07F00042803D120782A2800D00EE0A0
:10450000207805F07F010DF80100681CC5B202E0BB
:10451000852D00D103E0641C20780028DED100BF87
:104520008DB1002005F07F010DF8010051A1684612
:1045300000F062FA18B900210898017002E0012128
:104540000898017000254FF0000A444614E0641CEE
:104550000AF1010000F0FF0A2078202802D020781C
:104560002A2809D1204600F0D7F90646282E03D084
:104570002A2E01D0CDF810A02078282802D020784B
:104580000028E4D14446049810B10498401C044427
:104590004FF0000A002654E0207810B94FF0010ACD
:1045A00050E02078282803D116B9781CC7B213E050
:1045B0002078292808D13EB917B1781EC7B201E08A
:1045C0004FF0010A47B93DE02078222804D10EB906
:1045D000012000E00020064647B9207820282FD08F
:1045E000207889F8000009F1010929E020782C28B9
:1045F00004D101200290681CC5B214E02078202864
:1046000011D0207828280ED04DB9BBF1050F06DA5D
:1046100020780DF80B000BF1010000F0FF0B029861
:10462000401CC0B20290012F0AD10298022807D183
:104630000298401CC0B202900398401CC0B2039084
:10464000641CA9E700BF0398012809D100200DF8D8
:104650000B0008A1684600F0CFF908B900200390CC
:10466000079903980870002089F80000504609B0A7
:10467000BDE8F08F766F6964000000002DE9F0431B
:10468000B5B005460F460024002604E000213D4851
:104690008155701CC6B20A2EF8DB06E06D1C287826
:1046A00018B9012035B0BDE8F08328782828F5D165
:1046B0006D1C61E034AA69462846FFF77FFE064676
:1046C00035449DF8D00020B1012827D0FF284CD1D7
:1046D00049E09DF8000000B333A9684600F027F9CF
:1046E00006460EB10220DDE7204600F04DF82549D0
:1046F0000A31339A0A50A1F12400008B0121A14014
:10470000884320491A39088304211E480155601C3A
:10471000C4B20A2C01DD0320C4E726E0684600F09D
:1047200087F9401C00F0FF08204600F02DF81549DD
:104730000A3100EB01094946684600F06EF911485C
:104740001A38018B0120A040014388B20D491A3963
:1047500008830C4800F80480601CC4B20A2C01DDF8
:1047600003209FE701E002209CE700BF287829286A
:1047700001D0287800B900E09CE700BF3C70002021
:1047800090E70000E600002002460020002105E03E
:10479000044B5B5C0344D8B24B1CD9B29142F7DBAB
:1047A00070470000E600002010B501210D48FDF71C
:1047B0006CFE012808D10C48D0F8F0004FF6FF71CC
:1047C00008440949C1F8F0000648FDF75BFE0649B8
:1047D000D1F8F01008440449C1F8F0000846D0F8B8
:1047E000F00010BD00080040CC00002010B50446C9
:1047F00004EBC40000EB04100122C2EB800081B284
:104800004FF47A70FDF75AFF01200149C87510BDB9
:10481000CC00002010B50246012000E050430B1EE2
:10482000A1F10104E1B2F9D110BD000010B50121E0
:104830000848FDF700FE4FF6FF710648FDF7EFFE52
:1048400000210448FDF7F5FE00200349C1F8F000FF
:1048500010BD000000080040CC00002070B51D48CD
:10486000008800F40040002833D01A480578002062
:1048700019494855194881681748884704461CB9A2
:104880001649C868804721E0134800F0DDF8054666
:10489000012D00D02C46CCB1012C06D0022C08D022
:1048A000032C0AD0042C10D10BE00DA0FEF79AF9CE
:1048B0000BE00EA0FEF796F907E00FA0FEF792F9C5
:1048C00003E010A0FEF78EF900BF00BF00200149F1
:1048D000088070BD1E000020F4010020CC000020E4
:1048E000BAAFCAFDB4EDCEF3210D0A00B2CECAFDB7
:1048F000B4EDCEF3210D0A00B2CECAFDCCABB6E0CA
:10490000210D0A00CEB4D5D2B5BDC6A5C5E4B5C447
:10491000BAAFCAFD210D0A000146491C00E0491C3E
:104920000878202801D10029F9D1087870472DE9AD
:10493000F04307460E4600254FF00A083C4600208B
:1049400030601FE02078392802DC207830280ADA2D
:104950002078462802DC2078412804DA207858287C
:1049600009D1012D07D12078412801DB4FF0100833
:10497000681CC5B205E0207800B904E00120BDE85C
:10498000F083641CDEE700BF3C46B8F1100F0FD186
:10499000032D01DA0220F2E72078302806D1607872
:1049A000582803D1A41CA81EC5B204E00320E6E7E2
:1049B0000DB90420E3E71BE00DB1681EC5B22078F5
:1049C000392806DC2078302803DB2078A0F1300974
:1049D00002E02078A0F1370929464046FFF71AFF88
:1049E000316809FB00103060641C207800B900E0D9
:1049F000E2E700BF0020C2E702460AE010780B7829
:104A0000984201D001207047107800B902E0521C92
:104A1000491CF3E700BF0020F5E706E002780A70C2
:104A2000027802B902E0401C491CF7E700BF70475A
:104A30000146002005E00A7802B903E0421CD0B22A
:104A4000491CF8E700BF704710B58CB004461E2320
:104A50000BAA03A92046FFF715FD0090009810B19E
:104A600001200CB010BD9DF82C00044400200B90D8
:104A70000EE040489DF82C2050F8221003A8FFF7C4
:104A8000BBFF00B908E09DF82C00401CC0B20B90A1
:104A90009DF82C000728ECD300BF9DF82C000728B8
:104AA00063D2DFE800F004053C5E6564630000BF8C
:104AB00031A0FEF797F831A0FEF794F83FA0FEF77B
:104AC00091F84EA0FEF78EF85CA0FEF78BF86BA075
:104AD000FEF788F879A0FEF785F886A0FEF782F841
:104AE0008BA0FEF77FF890A0FEF77CF894A0FEF76D
:104AF00079F899A0FEF776F89EA0FEF773F8A4A0C7
:104B0000FEF770F8B0A0FEF76DF8BDA0FEF76AF8EA
:104B1000C8A0FEF767F8D4A0FEF764F89AE216A0E2
:104B2000FEF760F8E0A0FEF75DF800200B900EE0C5
:104B3000ED4800689DF82C2000EBC2004168EBA016
:104B4000FEF750F89DF82C00401CC0B20B90E648D0
:104B5000007D9DF82C108842EADC07A0FEF742F8A1
:104B600078E205A0FEF73EF8C4E171E245E219E201
:104B7000ECE10000500000200D0A00002D2D2D2D2D
:104B80002D2D2D2D2D2D2D2D2D2D2D2D2D2D2D2D55
:104B90002D2D2D2D55534D4152542056332E312D50
:104BA0002D2D2D2D2D2D2D2D2D2D2D2D2D2D2D2D35
:104BB0002D2D2D2D2D2D2D200D0A00002020202003
:104BC00055534D415254CAC7D3C9414C49454E541F
:104BD000454BBFAAB7A2B5C4D2BBB8F6C1E9C7C995
:104BE000B5C4B4AEBFDAB5F7CAD4BBA5BDBBD7E96F
:104BF000BCFE2CCDA8B9FD200D0A0000CBFC2CC4B6
:104C0000E3BFC9D2D4CDA8B9FDB4AEBFDAD6FACAD3
:104C1000D6B5F7D3C3B3CCD0F2C0EFC3E6B5C4C8A2
:104C2000CEBACEBAAFCAFD2CB2A2D6B4D0D02ED254
:104C3000F2B4CB2CC4E3BFC90D0A0000D2D4CBE63A
:104C4000D2E2B8FCB8C4BAAFCAFDB5C4CAE4C8EB76
:104C5000B2CECAFD28D6A7B3D6CAFDD7D6283130E2
:104C60002F3136BDF8D6C629A1A2D7D6B7FBB4AE30
:104C7000A1A2BAAFCAFDC8EB0D0A0000BFDAB5D8D1
:104C8000D6B7B5C8D7F7CEAAB2CECAFD292CB5A5DE
:104C9000B8F6BAAFCAFDD7EEB6E0D6A7B3D6313074
:104CA000B8F6CAE4C8EBB2CECAFD2CB2A2D6A7B3FE
:104CB000D6BAAFCAFDB7B5200D0A0000BBD8D6B52D
:104CC000CFD4CABE2ED0C2D4F6B2CECAFDCFD4CA7B
:104CD000BEBDF8D6C6C9E8D6C3B9A6C4DC2CD0C2BE
:104CE000D4F6BDF8D6C6D7AABBBBB9A6C4DC2E0D78
:104CF0000A000000BCBCCAF5D6A7B3D63A777777CE
:104D00002E6F70656E6564762E636F6D0D0A000000
:104D100055534D415254D3D037B8F6CFB5CDB3C368
:104D2000FCC1EE3A0D0A00003F3A2020202020204E
:104D3000BBF1C8A1B0EFD6FAD0C5CFA20D0A0000D2
:104D400068656C703A202020BBF1C8A1B0EFD6FA9C
:104D5000D0C5CFA20D0A00006C6973743A202020E0
:104D6000BFC9D3C3B5C4BAAFCAFDC1D0B1ED0D0A36
:104D70000A00000069643A2020202020BFC9D3C364
:104D8000BAAFCAFDB5C44944C1D0B1ED0D0A0A009D
:104D90006865783A20202020B2CECAFD3136BDF8B1
:104DA000D6C6CFD4CABE2CBAF3B8FABFD5B8F12B49
:104DB000CAFDD7D6BCB4D6B4D0D0BDF8D6C6D7AA13
:104DC000BBBB0D0A0A0000006465633A2020202066
:104DD000B2CECAFD3130BDF8D6C6CFD4CABE2CBAC9
:104DE000F3B8FABFD5B8F12BCAFDD7D6BCB4D6B448
:104DF000D0D0BDF8D6C6D7AABBBB0D0A0A000000AA
:104E000072756E74696D653A312CBFAAC6F4BAAF7B
:104E1000CAFDD4CBD0D0BCC6CAB13B302CB9D8B1B6
:104E2000D5BAAFCAFDD4CBD0D0BCC6CAB13B0D0AEF
:104E30000A000000C7EBB0B4D5D5B3CCD0F2B1E0D6
:104E4000D0B4B8F1CABDCAE4C8EBBAAFCAFDC3FB5F
:104E5000BCB0B2CECAFDB2A2D2D4BBD8B3B5BCFCF2
:104E6000BDE1CAF82E0D0A002D2D2D2D2D2D2D2D35
:104E70002D2D2D2D2D2D2D2D2D2D2D2D2D2D2D2D62
:104E80002D2D414C49454E54454B2D2D2D2D2D2D6D
:104E90002D2D2D2D2D2D2D2D2D2D2D2D2D2D2D2D42
:104EA0002D2D2D200D0A00002D2D2D2D2D2D2D2DDC
:104EB0002D2D2D2D2D2D2D2D2D2D2D2D2D2D2D2D22
:104EC0002DBAAFCAFDC7E5B5A52D2D2D2D2D2D2D44
:104ED0002D2D2D2D2D2D2D2D2D2D2D2D2D2D2D2D02
:104EE0002D2D2D2D200D0A00CC00002025730D0A3C
:104EF0000000000059A0FDF775FE00200B901AE09D
:104F0000664909689DF82C2001EBC20101AB02AA99
:104F1000486803A9FFF7D2FA604800689DF82C1092
:104F200050F8312003A95EA0FDF75CFE9DF82C002F
:104F3000401CC0B20B905948007D9DF82C1088424F
:104F4000DEDCAFF2CC30FDF74DFE83E0AFF2D830BF
:104F5000FDF748FE0BAA03A92046FFF72FFA9DF89C
:104F60002C00C8B9694603A8FFF7E1FC0B909DF837
:104F70002C0020B94FA00099FDF734FE0EE09DF8FB
:104F80002C00042801D002206BE54DA0FDF72AFE7D
:104F900001204249C87501E0022062E547A0FDF703
:104FA00021FE57E045A0FDF71DFE0BAA03A92046F0
:104FB000FFF704FA9DF82C00C8B9694603A8FFF76B
:104FC000B6FC0B909DF82C0020B942A00099FDF78B
:104FD00009FE0EE09DF82C00042801D0022040E5D7
:104FE0003FA0FDF7FFFD00202C49C87501E002201D
:104FF00037E532A0FDF7F6FD2CE030A0FDF7F2FD1D
:105000000BAA03A92046FFF7D9F99DF82C00C8B9CF
:10501000694603A8FFF78BFC0B909DF82C0078B92C
:105020001E49009881F8EC00084690F8EC0018B191
:1050300030A0FDF7D7FD07E035A0FDF7D3FD03E075
:1050400002200EE502200CE51CA0FDF7CBFD01E0DF
:10505000012006E500BF002003E500002D2D2D2DC9
:105060002D2D2D2D2D2D2D2D2D2D2D2D2D2D2D2D70
:105070002D2D2D2D2DBAAFCAFD204944202D2D2DCB
:105080002D2D2D2D2D2D2D2D2D2D2D2D2D2D2D2D50
:105090002D2D2D2D2D2D2D2D200D0A00CC00002085
:1050A00025732069642069733A0D0A305825303819
:1050B000580D0A004845583A305825580D0A000046
:1050C0003136BDF8D6C6B2CECAFDCFD4CABE210D88
:1050D0000A0000004445433A256C750D0A000000A3
:1050E0003130BDF8D6C6B2CECAFDCFD4CABE210D6E
:1050F0000A00000052756E2054696D652043616C92
:1051000063756C6174696F6E204F4E0D0A0000006C
:1051100052756E2054696D652043616C63756C61D6
:1051200074696F6E204F46460D0A0000016070479B
:105130006273705F537461727454696D657200625A
:1051400073705F53746172744175746F54696D65E7
:1051500072006273705F53746F7054696D65720092
:10516000000000000000000000000000000000003F
:105170003F40000000000000000030004000300010
:105180004000000009000BC03D000BC03D000900BD
:1051900018C024407FE0224031800000180024C065
:1051A0001B000D803240018003801C4027401C8082
:1051B00007400040100060000000000000000000F8
:1051C0000000000000001F80204040200000402020
:1051D00020401F8000000000090006001F8006001C
:1051E00009000000040004003F80040004000000E7
:1051F0000010006000000000000000000400040037
:105200000400040004000000000000400000000052
:1052100000000000002001C006003800400000002F
:105220001F802040204020401F80000000001040D0
:105230003FC000400000000018C021402240244030
:105240001840000010802040244024401B800000B3
:1052500002000D0011003FC0014000003C802440CE
:1052600024402440238000001F80244024403440F8
:10527000038000003000200027C03800200000001C
:105280001B802440244024401B8000001C0022C0BE
:10529000224022401F800000000000000840000063
:1052A000000000000000000004600000000000009A
:1052B000000004000A00110020804040090009009D
:1052C0000900090009000000000040402080110092
:1052D0000A000400180020002340240018000000E9
:1052E0001F802040274029401F400000004007C089
:1052F00039000F0001C0004020403FC0244024403E
:105300001B8000001F802040204020403080000093
:1053100020403FC0204020401F80000020403FC070
:1053200024402E4030C0000020403FC024402E00CA
:10533000300000000F001080204022403380020027
:1053400020403FC0040004003FC0204020402040D7
:105350003FC02040204000000060202020203FC0AF
:105360002000200020403FC024400B0030C02040DF
:1053700020403FC020400040004000C03FC03C00F3
:1053800003C03C003FC0000020403FC00C40230051
:105390003FC020001F802040204020401F80000090
:1053A00020403FC024402400180000001F802140FE
:1053B000214020E01FA0000020403FC024402600E4
:1053C00019C0004018C02440244022403180000011
:1053D000300020403FC020403000000020003F80CF
:1053E000004000403F80200020003E0001C0070038
:1053F00038002000380007C03C0007C0380000001B
:10540000204039C0060039C020400000200038404C
:1054100007C0384020000000304021C026403840FE
:1054200020C00000000000007FE04020402000007D
:10543000000070000C0003800040000000004020CD
:1054400040207FE00000000000002000400020001D
:1054500000000000001000100010001000100010EC
:10546000000000004000000000000000000002807A
:105470000540054003C0004020003FC004400440F8
:105480000380000000000380044004400640000048
:1054900000000380044024403FC00040000003801F
:1054A0000540054003400000000004401FC02440A8
:1054B00024402000000002E0055005500650042062
:1054C00020403FC00440040003C0004000000440EE
:1054D00027C000400000000000100010041027E06A
:1054E0000000000020403FC00140070004C004400D
:1054F000204020403FC000400040000007C00400A2
:1055000007C0040003C00000044007C004400400BA
:1055100003C00040000003800440044003800000FA
:10552000041007F0045004400380000000000380D2
:105530000440045007F00010044007C0024004007B
:1055400004000000000006400540054004C00000C3
:10555000000004001F800440004000000400078099
:105560000040044007C000400400070004C0018060
:1055700006000400060001C0070001C0060000008C
:10558000044006C0010006C00440000004100710DB
:1055900004E00180060004000000044005C006404D
:1055A000044000000000000004007BE040200000F8
:1055B000000000000000FFF000000000000040209C
:1055C0007BE004000000000040008000400020005C
:1055D000200040000000000000000000000000006B
:1055E000000000000000000000001FCC000C0000C4
:1055F00000000000000008003000600008003000DB
:1056000060000000022003FC1E20022003FC1E207C
:105610000220000000000E1811043FFF10840C78D7
:10562000000000000F0010840F3800C007781884B5
:105630000078000000780F8410C411240E9800E454
:1056400000840008080068007000000000000000EE
:105650000000000000000000000007E0181820040F
:1056600040020000000040022004181807E000007B
:10567000000000000240024001800FF00180024063
:10568000024000000080008000800FF80080008051
:10569000008000000001000D000E0000000000006E
:1056A000000000000000008000800080008000807A
:1056B000008000800000000C000C000000000000D2
:1056C00000000000000000060018006001800600D5
:1056D00018002000000007F0080810041004080853
:1056E00007F000000000080408041FFC0004000488
:1056F0000000000000000E0C10141024104411844F
:105700000E0C000000000C18100411041104128883
:105710000C700000000000E00320042408241FFC9B
:105720000024000000001F98108411041104108848
:1057300010700000000007F0088811041104188898
:105740000070000000001C00100010FC13001C0082
:105750001000000000000E38114410841084114421
:105760000E38000000000700088C10441044088820
:1057700007F00000000000000000030C030C000014
:105780000000000000000000000101060000000011
:105790000000000000000080014002200410080802
:1057A0001004000002200220022002200220022019
:1057B000022000000000100408080410022001402C
:1057C0000080000000000E001200100C106C108011
:1057D0000F00000003E00C1813E4142417C4082879
:1057E00007D000000004003C03C41C40074000E454
:1057F000001C000410041FFC1104110411040E8885
:105800000070000003E00C181004100410041008CD
:105810001C10000010041FFC1004100410040808E1
:1058200007F0000010041FFC1104110417C4100439
:105830000818000010041FFC1104110017C010000C
:105840000800000003E00C181004100410441C7839
:105850000040000010041FFC1084008000801084B1
:105860001FFC10040000100410041FFC100410049E
:105870000000000000030001100110011FFE1000D5
:105880001000000010041FFC110403801464181C95
:105890001004000010041FFC1004000400040004A5
:1058A000000C000010041FFC1F0000FC1F001FFC68
:1058B0001004000010041FFC0C04030000E010188A
:1058C0001FFC100007F0080810041004100408085A
:1058D00007F0000010041FFC10841080108010805E
:1058E0000F00000007F0081810241024101C080AEC
:1058F00007F2000010041FFC1104110011C0113048
:105900000E0C000400000E1C1104108410841044BE
:105910001C3800001800100010041FFC10041000B8
:105920001800000010001FF8100400040004100408
:105930001FF8100010001E0011E0001C0070138002
:105940001C0010001FC0103C00E01F0000E0103CD5
:105950001FC000001004180C163401C001C016341A
:10596000180C100410001C00130400FC13041C008D
:10597000100000000804101C1064108413041C04A0
:10598000101800000000000000007FFE40024002EE
:1059900040020000000030000C0003800060001C8A
:1059A0000003000000004002400240027FFE0000B1
:1059B0000000000000000000200040004000400007
:1059C00020000000000100010001000100010001B1
:1059D0000001000100004000400020000000000025
:1059E000000000000000009801240144014401442B
:1059F00000FC000410001FFC008801040104008862
:105A0000007000000000007000880104010401041F
:105A100000880000000000700088010401041108E3
:105A20001FFC0004000000F801440144014401444B
:105A300000C800000000010401040FFC110411045F
:105A400011001800000000D601290129012901C90F
:105A50000106000010041FFC008401000100010485
:105A600000FC000400000104190419FC00040004F7
:105A7000000000000000000300010101190119FEEF
:105A80000000000010041FFC0024004001B4010CC1
:105A9000010400000000100410041FFC00040004B6
:105AA00000000000010401FC0104010001FC0104EC
:105AB000010000FC010401FC00840100010001045C
:105AC00000FC0004000000F80104010401040104CA
:105AD00000F80000010101FF0085010401040088B5
