:020000040800F2
:1000000098610020F9170008CD160008CF160008E7
:10001000F1160008F3160008F516000800000000AD
:10002000000000000000000000000000F7160008BB
:10003000F916000800000000FB160008F91300087C
:10004000391800083D180008411800084518000834
:10005000491800084D1800085118000855180008E4
:10006000591800085D180008611800086518000894
:10007000691800086D180008711800087518000844
:10008000791800087D1800088118000885180008F4
:10009000891800088D1800089118000895180008A4
:1000A000991800089D180008A1180008A518000854
:1000B000A9180008AD180008B1180008B518000804
:1000C000B9180008BD180008C1180008C5180008B4
:1000D000C91800088106000885060008890600087E
:1000E000D9180008DD180008E1180008E518000814
:1000F000E9180008ED180008F1180008F5180008C4
:10010000F9180008FD180008011900080519000871
:10011000091900080D19000811190008151900081F
:10012000191900081D1900082119000825190008CF
:10013000291900082D19000831190008351900087F
:10014000391900083D19000841190008451900082F
:10015000491900084D190008511900088D060008BA
:10016000591900085D19000861190008651900088F
:10017000691900086D19000871190008751900083F
:10018000791900087D19000880B500F00FF800F01B
:100190006CF8BDE80140C9E1DFF8240504210180C5
:1001A0007047DFF82005042101807047DFF8000563
:1001B000DFF81415016000F22C01416000F22C41BF
:1001C00081604FF480618181C1810022026182617E
:1001D0004261C26102624262DFF8D824DFF8EC3487
:1001E000136000F22803536000F62C039360012390
:1001F00093814FF40063D3810023136193615361B2
:10020000D36113625362DFF8B024DFF8C4341360A3
:1002100000F580532C33536000F5A0532C339360CA
:100220009181D1810023136193615361DFF8A4347C
:10023000D361DFF8A434136200235362DFF87C2417
:10024000DFF89834136000F5C0532C33536000F589
:10025000E0502C3090609181D1810020106190613C
:100260005061D0611062506270472DE9F04186B054
:100270000121084600F087FA0121102000F099FAC8
:10028000DFF85C7407220921384600F0E5FA0722FE
:100290000A21384600F0E0FA00208DF8060001201F
:1002A0008DF8070002208DF804004FF400700090D4
:1002B00002208DF8050000A9384600F093FA0220CC
:1002C0008DF804004FF48064009400A9384600F0D3
:1002D00089FA4FF4E135029500200390ADF8100043
:1002E000ADF814000C20ADF81200DFF8DC8302A991
:1002F000404600F0DBFA40F22556012231464046E6
:1003000000F03EFB0121404600F026FB4021404624
:1003100000F05AFB0121084600F035FA01214FF4A4
:10032000003000F03BFA07220321384600F094FA2F
:1003300000208DF8060001208DF8070002208DF8BE
:1003400004000820009002208DF8050000A938461E
:1003500000F048FA4FF41657029700200390ADF8CA
:100360001000ADF814000420ADF81200DFF85C8333
:1003700002A9404600F09AFA01223146404600F0B8
:10038000FFFA0121404600F0E7FA4021404600F024
:100390001BFB0121022000F0F6F901208DF804007A
:1003A0000020ADF8060003208DF805000420009021
:1003B000DFF8308300A9404600F014FA0121022042
:1003C00000F0E1F901214FF4802000F0E7F9072265
:1003D0000A21404600F040FA07220B21404600F077
:1003E0003BFA00208DF8060001208DF8070002205E
:1003F0008DF8040000948DF8050000A9404600F037
:10040000F1F902208DF804004FF40060009000A97B
:10041000404600F0E7F9029700200390ADF8100085
:10042000ADF814000C20ADF81200A94C02A920462A
:1004300000F03CFA01223146204600F0A1FA0121E9
:10044000204600F089FA4021204600F0BDFA012143
:10045000442000F098F90121202000F0AAF9A24CD4
:1004600008220E21204600F0F7F9A04F08220721AC
:10047000384600F0F1F908221146204600F0ECF968
:1004800008220F21204600F0E7F900208DF8060031
:1004900001208DF8070002208DF804004FF4804001
:1004A000009002208DF8050000A9204600F09AF97E
:1004B00002208DF804008020009000A9384600F04A
:1004C00091F902208DF804004FF48070009000A98B
:1004D000204600F087F902208DF804004FF4004018
:1004E000009000A9204600F07DF9029500200390BD
:1004F000ADF810004FF44070ADF814000C20ADF8CA
:100500001200764C02A9204600F0D0F901223146B3
:10051000204600F035FA0121204600F01DFA402166
:10052000204600F051FA06B0BDE8F08180B54FF4E6
:10053000E06000F081FA25208DF8000000208DF8A1
:10054000020001208DF8030000A800F07AFA2620AE
:100550008DF8000001208DF802008DF8030000A83E
:1005600000F06FFA27208DF8000002208DF80200BD
:1005700001208DF8030000A800F063FA47208DF8F1
:10058000000005208DF8020001208DF8030000A86E
:1005900000F057FA01BD70B5044640F225512068BD
:1005A00000F015FA00281AD0206800F0E5F9E18A79
:1005B000A2688854E08A401CE082E18980B28842C7
:1005C00001D30020E082608B884201D2401C60830E
:1005D000608B012803D1606A010000D08047256844
:1005E00040F227763146284600F0F1F900281FD066
:1005F000A08A00280CD100223146284600F0C0F91C
:10060000012240F226612068BDE8704000F0B8B9D0
:10061000608A6168415C284600F0AAF9608A401C43
:100620006082A18980B2884226D30020608223E0C4
:1006300040F226663146284600F0C9F900281ED04F
:100640002068A18A002909D10022314600F098F9DA
:10065000206A010013D0BDE870400047618A6268DB
:10066000895C00F085F9608A401C6082A18980B2B3
:10067000884201D300206082A08A401EA08270BD03
:100680000B4888E70B4886E70B4884E70B4882E76E
:1006900038B504460C4D2146C9B2284600F068F929
:1006A0004021284600F089F90028F9D0204632BDC3
:1006B000640000201021002038210020602100204B
:1006C000180402401A040240001001400044004097
:1006D0000048004099010008A301000800140140EF
:1006E00000000240000402400018024000080240DE
:1006F00010B435494A6802F00C02042A02D0082AD4
:1007000003D022E0314A026021E00A68C2F380523D
:100710000B6803F03F03002A07D02C4AB2FBF3F228
:100720000B68C3F388135A4306E0294AB2FBF3F27D
:100730000B68C3F388135A430B68C3F301435B1C74
:100740005B00B2FBF3F2026001E0214A02604A68FA
:1007500002F0F0031F4A1B099B5C046824FA03F3B0
:1007600043604C6804F4E054A40AA45CE340836052
:10077000496801F46041490B895C426822FA01F141
:10078000C16010BC7047144A0029116802D00843A8
:100790001060704721EA0000106070470F4A00297E
:1007A000116802D008431060704721EA0000106011
:1007B00070470B4A0029116802D008431060704747
:1007C00021EA0000106070470438024040787D0143
:1007D0000024F40054000020303802404038024029
:1007E00044380240F0B4002232E0012393400C6808
:1007F0001C409C422BD154000325A540ED430668C4
:100800002E40066006680F79A7403E4306600E79C9
:10081000012E01D0022E11D186682E408660866896
:100820004F79A7403E438660466826EA030343604B
:1008300043688E799640B6B233434360C3682B4019
:10084000C360C368CD7905FA04F42343C360521C26
:10085000102ACAD3F0BC704710B4CB1000EB830051
:1008600001F007018900036A0F248C40A34303624F
:10087000036A02FA01F11943016210BC704710B417
:1008800050F8041B81B102681218001D50F8043B97
:10089000DC0744BFA9F10104E31852F8044B43F804
:1008A000044B091FF9D1EBE710BC704730B585B098
:1008B00004460D46208A4CF6FF710840E98808433B
:1008C0002082A0894EF6F3110840A988084329899F
:1008D000084369890843A081A08A4FF6FF41084078
:1008E000A9890843A08200A8FFF702FF18488442A4
:1008F00002D01848844201D1039800E00298296888
:1009000019225043A289120403D54900B0FBF1F12A
:1009100002E08900B0FBF1F16422B1FBF2F00001CA
:10092000030902FB1311A3891B0407D5C900323147
:10093000B1FBF2F101F00701084306E00901323191
:10094000B1FBF2F101F00F010843208105B030BD89
:1009500000100140001401400029818903D041F4B6
:100960000051818170474DF6FF72114081817047BF
:10097000C905C90D818070478088C005C00D7047CA
:1009800010B40B46DBB25B09012401F01F0104FA2D
:1009900001F1012B01D10C3004E0022B01D1103008
:1009A00000E01430002A026802D01143016002E026
:1009B00022EA0101016010BC704700220088084251
:1009C00000D0012210467047C9430180704730B4FF
:1009D0000A4600211346DBB25B09012402F01F0521
:1009E00004FA05F5012B02D183892B4006E0022B86
:1009F00002D1038A2B4001E0838A2B40120A04FAB9
:100A000002F200881040002B02D0002800D02146BE
:100A1000084630BC704750F8041B61B150F8042BF5
:100A2000D30744BFA9F101039A18002342F8043BFD
:100A3000091FFAD1EFE770471949084319490860BF
:100A4000704770B403781A460121C478002C1DD079
:100A5000144B1B6803F4E063C3F5E0631B0A44789E
:100A6000C3F10405AC4085780F2646FA03F32B400A
:100A700023431B010C4C1355007842110B4B00F023
:100A80001F0001FA00F043F8220006E05011084A66
:100A900003F01F03994042F8201070BC704700001B
:100AA0000000FA050CED00E000E400E000E100E0E9
:100AB00080E100E02DE9F04F93B0814617461D46D6
:100AC000029102AE002009E017F8011B0298C84706
:100AD0000290002800F0CF81B069401CB0613878E6
:100AE00008B9B069C9E12528EED10020F060306175
:100AF000706101E040F0010017F8011F2029F9D0D2
:100B000023290ED02B2904D02D2906D030290CD032
:100B10000FE040F0020080B2EEE740F0040080B247
:100B2000EAE740F0080080B2E6E740F0100080B24B
:100B3000E2E72A290DD129680A1D2A600968316275
:100B4000002904D54942316240F0040080B27F1C84
:100B500013E0002131620BE0316A6FF000439942EB
:100B600005D001EB810302EB4301303931627F1C78
:100B70003A78A2F130010A29EED339782E291CBF28
:100B80004FF0FF31F1611ED117F8011F2A2906D15C
:100B900029680A1D2A600968F1617F1C13E00021A1
:100BA000F1610BE0F1696FF00043994205D001EB70
:100BB000810302EB43013039F1617F1C3A78A2F1E5
:100BC00030010A29EED3B08439780FF2843000F076
:100BD000C3F908B117F8010B8DF82E009DF82E000F
:100BE000682804BF3878682803D162208DF82E0069
:100BF0007F1C0CA8B0603A78252A00F0B980582AEA
:100C000030D0632A00F0A380642A18BF692A64D018
:100C10006F2A27D0702A1CD0732A04D0752A18BFD7
:100C2000782A1FD09DE02868011D29600068706047
:100C3000F269002A03D500F09BF930619DE00021A4
:100C400000F0B2F900281ABF7168401AF0693061EB
:100C500093E02868011D2960006801900CA870606D
:100C6000782170E09DF82E306C2B08BF286811D0D9
:100C7000712B08BF286802D06A2B28680AD1C01DD2
:100C800020F007002860014601F108002860D1E942
:100C9000000102E0011D296000680190682B04BF7B
:100CA00001A8008803D0622B02D101A8007801902E
:100CB00096F82400000741D5019800283ED042F064
:100CC000200078283AD1F0680CA930234354401C06
:100CD000411CF1600CA9425430E09DF82E006228BE
:100CE00002D0682806D00BE02868011D296090F921
:100CF000000009E02868011D2960B0F9000003E048
:100D00002868011D296000680190002805D5F06859
:100D1000411CF1600CA92D230FE0B08C810705D593
:100D2000F068411CF1600CA92B2306E0C00705D533
:100D3000F068411CF1600CA920234354F0680CA911
:100D400040187060114601A800F09AF815E0F068AC
:100D5000411CF16029680A1D2A600CAA09688154A7
:100D60000BE0F068411CF1600CA92523435422B12B
:100D7000F068411CF1600CA942547F1C306AF16894
:100D8000401A7169401A3169A0EB010896F82400F5
:100D9000400719D420208DF80000B8F1010F13DBB3
:100DA00044464FF0010A0DF1000B1BF8011B02989D
:100DB000C847029000285ED0B069401CB061BAF10B
:100DC000010AF2D1641EECD1F4680DF1300A5CB175
:100DD0001AF8011B0298C847029000284BD0B0694E
:100DE000401CB061641EF3D130208DF80000D6F8AD
:100DF00014B0BBF1010F10DB01240DF1000A1AF849
:100E0000011B0298C8470290A8B3B069401CB061AA
:100E1000641EF4D1BBF1010BEED13469D6F804A005
:100E200054B11AF8011B0298C847029018B3B06970
:100E3000401CB061641EF4D196F8240040077FF591
:100E40004EAE20208DF80000B8F1010FFFF647AE3E
:100E500001240DF1000A1AF8011B0298C8470290FC
:100E600048B1B069401CB061641EF4D1B8F101080A
:100E70003FF435AEECE74FF0FF3013B0BDE8F08F34
:100E8000F0B4C2686F2908BF082405D041F02003E0
:100E9000782B14BF0A241024182305682E466429D1
:100EA00018BF692902D1002D48BF7642002E04BF29
:100EB000056A002D09D1082C27D190F828100907C0
:100EC00023D517233021D1751FE05D1E2B46B6FBBD
:100ED000F4F704FB17663036F6B23A2E24BFA1F1C0
:100EE000510C6644AE543E0003D085689F18BD4245
:100EF000EBD3082C09D190F82810090705D5995C87
:100F0000302902D05B1E30219954C3F11801416190
:100F10009A188260026A914207DA511A8161018D42
:100F20004FF6EF721140018510E0002A0ED590F8BF
:100F3000282002F01402102A08D1426A0369D21A4A
:100F40008369D21A531A012BA8BF8361F0BC704782
:100F5000686C747A4C0000000278C9B28A421AB1F7
:100F60001CBF10F8012FF9E718BF002070470000E0
:100F700000F10103810704D010F8011B89B181073A
:100F8000FAD10268B2F10131914311F0803F04BF00
:100F900050F8042FF6E710F8011B11B110F8011BEF
:100FA000FBE7C01A70470000C9B2830706D0521E83
:100FB00022D310F8013B9942F7D11FE0083A13D32E
:100FC00002F1040241EA012141EA014150F8043BE7
:100FD000121F21BF4B40A3F1013C2CEA030C1CF073
:100FE000803FF3D0C9B2001F083210F8013B521EF7
:100FF00028BF91EA030FF8D818BF0120401E7047A0
:1010000080B500F037F900F019F84FF4FA710020BC
:1010100000F0B5F900F039F9002000F0CEF9002811
:10102000F8D0042000F08DFA032000F08AFA0220A4
:1010300000F087FA012000F084FAEBE710B52448AD
:101040000368426881680FF28C0000F0ADFA1EA0C0
:1010500000F0AAFA0FF2B404204600F0A5FA0FF24D
:1010600000110FF2E80000F09FFA18A10FF2001033
:1010700000F09AFA0FF220110FF2081000F094FA23
:101080000023022201210FF21C1000F08DFA0FF252
:101090004C1000F089FA0FF24C1000F085FA0FF2B4
:1010A0005C1000F081FA0FF2681000F07DFA0FF288
:1010B0007C1000F079FA0FF2941000F075FA2046D7
:1010C000BDE8104000F070BA0A0D0000312E31006A
:1010D000107AFF1F0D0A435055203A2053544D33C8
:1010E0003246343037494754362C204C5146503123
:1010F00037362C20554944203D20253038582025AE
:1011000030385820253038580A0D00002A2A2A2A5B
:101110002A2A2A2A2A2A2A2A2A2A2A2A2A2A2A2A2F
:101120002A2A2A2A2A2A2A2A2A2A2A2A2A2A2A2A1F
:101130002A2A2A2A2A2A2A2A2A2A2A2A2A2A2A2A0F
:101140002A2A2A2A2A2A2A2A2A0A0D002A20C0FD07
:10115000B3CCC3FBB3C62020203A2025730D0A0070
:1011600046342D3030345FC5DCC2EDB5C60000001A
:101170002A20C0FDB3CCB0E6B1BE2020203A202505
:10118000730D0A002A20B7A2B2BCC8D5C6DA202047
:10119000203A2025730D0A00323031332D31312DA4
:1011A000323000002A20B9CCBCFEBFE2B0E6B1BEAE
:1011B000203A205625642E25642E25642028535479
:1011C0004D3332463478785F537464506572697079
:1011D000685F447269766572290D0A002A200D0A3B
:1011E000000000002A205151202020203A203132D6
:1011F0003935373434363330200D0A002A20CDFA01
:10120000CDFA20203A2061726D666C790D0A0000DB
:101210002A20456D61696C203A2061726D666C7997
:101220004071712E636F6D200D0A00002A20CCD40E
:10123000B1A6B5EA3A2061726D666C792E74616F61
:1012400062616F2E636F6D0D0A0000002A20436FEC
:1012500070797269676874207777772E61726D662E
:101260006C792E636F6D20B0B2B8BBC0B3B5E7D751
:10127000D30D0A0080B5FEF787FF00F028F8BDE81F
:10128000014000F00BB97047704770470901002812
:1012900006D500F00F00524A801800F8041C704771
:1012A000504A8154704710B5401EB0F1807F01D381
:1012B000012010BD4C4C60600F214FF0FF30FFF754
:1012C000E5FF0020A06007202060002010BD18B4BA
:1012D0000020464A044609E000EB400189008B18D3
:1012E0005C609C605C7023468B54401C0428F3DBDC
:1012F0003F4800684FF47A71B0FBF1F012BCD2E7BE
:1013000038B53C4C6068002805D06068401E6060BD
:1013100001D101202070002507E005EB450033498D
:1013200001EB800000F01CF86D1C042DF5D3A068C3
:10133000401CA060A0686FF00041884201D10020ED
:10134000A060FFF7A1FF6078401C6070C0B20A285F
:1013500005D300206070BDE83140FFF794BF31BD78
:10136000416800290AD04168491E416006D1012127
:1013700041700178012901D181684160704780B5D1
:10138000042808D30FF200120FF290010FF26C0044
:1013900000F00AF9FEE7012282F3108800EB400218
:1013A0009000124A831859609960002159700121F8
:1013B0008154002080F3108801BD042801D300204F
:1013C000704700EB4001094800EB8100417801299A
:1013D00003D10021417001207047002070470000B8
:1013E00018ED00E000E400E010E000E0E020002064
:1013F000500000208821002082E700004572726FB3
:10140000723A2066696C652025732C2066756E63C0
:1014100074696F6E20257328290D0A00443A5C49CF
:101420006E7374616C6C5061636B6167655C617253
:101430006D666C792D7635BBF9B4A1CDE2C9E8BDF6
:10144000CCB3CC5C46342D3030345F4750494FCD5F
:10145000A8D3C3494F5CB5DACBC4C6DAA3BAC5DC9E
:10146000C2EDB5C65C557365725C6273705F737470
:101470006D3332663478785C7372635C6273705F6C
:1014800074696D65722E63006273705F537461726C
:10149000744175746F54696D657200001CB501214B
:1014A0004FF49270FFF76FF9012000F02EF8022040
:1014B00000F02BF8032000F028F8042000F025F8B5
:1014C00001208DF804000020ADF8060003208DF8FF
:1014D00005004FF48060009000A92A48FFF782F9C8
:1014E00080200090284C00A92046FFF77BF94FF49C
:1014F0008070009000A92046FFF774F90420009046
:1015000000A92248FFF76EF913BD401EC0B20028A3
:1015100004D11F484FF4806101807047012803D136
:101520001C48802101807047022804D119484FF4DB
:10153000807101807047032802D11748042101807F
:101540007047012805D11548016881F48061016068
:101550007047022805D11248016881F080010160BE
:101560007047032806D10E4801684FF4807251403D
:1015700001607047042804D10A48016881F0040121
:101580000160704700200240001402400008024041
:10159000182002401814024018080240142002408B
:1015A00014140240140802400EB400B582B003A91E
:1015B000009100AB02460121034878440A30FFF74E
:1015C00079FA06BC5DF810FB0D02000080B53748C3
:1015D000016841F4700101603548016841F0010182
:1015E0000160002181600168324A11400160324986
:1015F0004160016821F4802101600021C16000F098
:1016000005F82E484FF00061016001BD82B0002056
:10161000019000902648016841F480310160016822
:1016200001F4003100910199491C019100990029B0
:1016300003D10199B1F5A04FF1D10168490C01F036
:1016400001010091009901292CD1016C41F08051D8
:1016500001641B490A6842F440420A608168816063
:10166000816841F400418160816841F4A05181604A
:1016700014494160016841F080710160016889018D
:10168000FCD5114940F205720A6081688908890019
:101690008160816841F002018160816801F00C0184
:1016A0000829FAD102B070470000000088ED00E080
:1016B00000380240FFFFF6FE1030002408ED00E085
:1016C0000070004019544007003C02407047002061
:1016D000064907E00FF22402825C8A800A885206DB
:1016E000FCD5401C2A28F5D3FEE70000001001407D
:1016F000FEE7FEE7FEE77047704770470D0A456E4C
:1017000074657220486172644661756C745F4861EB
:101710006E646C65722C2053797374656D2048611A
:101720006C742E0D0A00000010B5084979441C3174
:10173000074C7C441A34A14206D0081D0A6851188F
:1017400088470146A142F8D110BD00BF0800000043
:1017500028000000C3F2FFFF3021000064000020D9
:10176000000000001BF1FFFF6400000014020000F5
:1017700000000020000000004EF68851CEF200016B
:10178000086840F4700008604FF00070E1EE100A45
:101790007047000000F009F8002801D0FFF7C4FFEF
:1017A0000020FFF72DFC00F002F80120704700F048
:1017B00001B800000746384600F002F8FBE70000D9
:1017C00080B5C046C046024A11001820ABBEFBE7F8
:1017D0002600020038B504460D46284600F006F8FB
:1017E000A84218BF0024204632BD00000149FEF780
:1017F0004FBF00BF0000002001488047014800475C
:10180000CD15000809180008C046C046FFF7B4FF10
:10181000FFF7C0FFFFF75ABFFFF759BFFFF768BFD9
:10182000FFF767BFFFF766BFFFF765BFFFF764BF4E
:10183000FFF763BFFFF7E0BDFFF7FEBFFFF7FEBF97
:10184000FFF7FEBFFFF7FEBFFFF7FEBFFFF7FEBFCC
:10185000FFF7FEBFFFF7FEBFFFF7FEBFFFF7FEBFBC
:10186000FFF7FEBFFFF7FEBFFFF7FEBFFFF7FEBFAC
:10187000FFF7FEBFFFF7FEBFFFF7FEBFFFF7FEBF9C
:10188000FFF7FEBFFFF7FEBFFFF7FEBFFFF7FEBF8C
:10189000FFF7FEBFFFF7FEBFFFF7FEBFFFF7FEBF7C
:1018A000FFF7FEBFFFF7FEBFFFF7FEBFFFF7FEBF6C
:1018B000FFF7FEBFFFF7FEBFFFF7FEBFFFF7FEBF5C
:1018C000FFF7FEBFFFF7FEBFFFF7FEBFFEF7D8BE74
:1018D000FEF7D8BEFEF7D8BEFFF7FEBFFFF7FEBF8C
:1018E000FFF7FEBFFFF7FEBFFFF7FEBFFFF7FEBF2C
:1018F000FFF7FEBFFFF7FEBFFFF7FEBFFFF7FEBF1C
:10190000FFF7FEBFFFF7FEBFFFF7FEBFFFF7FEBF0B
:10191000FFF7FEBFFFF7FEBFFFF7FEBFFFF7FEBFFB
:10192000FFF7FEBFFFF7FEBFFFF7FEBFFFF7FEBFEB
:10193000FFF7FEBFFFF7FEBFFFF7FEBFFFF7FEBFDB
:10194000FFF7FEBFFFF7FEBFFFF7FEBFFFF7FEBFCB
:10195000FFF7FEBFFEF79ABEFFF7FEBFFFF7FEBF21
:10196000FFF7FEBFFFF7FEBFFFF7FEBFFFF7FEBFAB
:10197000FFF7FEBFFFF7FEBFFFF7FEBFFFF7FEBF9B
:101980000204010190200020E0200020902000208F
:1019900090200020902000203D0000202400002006
:1019A0000000000000000000000000000000000037
:1019B0000000000000000000000000000000000027
:1019C00000000000000000000102030406070809EF
:1019D000007A030A0000000001020304010203046C
:0419E00006070809E5
:0400000508001809CE
:00000001FF
